{"abi":[{"type":"constructor","inputs":[{"name":"positionManager_","type":"address","internalType":"address"},{"name":"ammPool_","type":"address","internalType":"address"},{"name":"oracleAggregator_","type":"address","internalType":"address"},{"name":"liquidationEngine_","type":"address","internalType":"address"},{"name":"riskManager_","type":"address","internalType":"address"},{"name":"configRegistry_","type":"address","internalType":"address"},{"name":"insuranceFund_","type":"address","internalType":"address"},{"name":"baseToken_","type":"address","internalType":"address"},{"name":"quoteToken_","type":"address","internalType":"address"}],"stateMutability":"nonpayable"},{"type":"function","name":"accrueFunding","inputs":[{"name":"marketId","type":"uint256","internalType":"uint256"}],"outputs":[],"stateMutability":"nonpayable"},{"type":"function","name":"addMargin","inputs":[{"name":"positionId","type":"uint256","internalType":"uint256"},{"name":"amount","type":"uint256","internalType":"uint256"}],"outputs":[],"stateMutability":"nonpayable"},{"type":"function","name":"ammPool","inputs":[],"outputs":[{"name":"","type":"address","internalType":"address"}],"stateMutability":"view"},{"type":"function","name":"baseToken","inputs":[],"outputs":[{"name":"","type":"address","internalType":"contract IERC20"}],"stateMutability":"view"},{"type":"function","name":"batchAccrueFunding","inputs":[{"name":"marketIds","type":"uint256[]","internalType":"uint256[]"}],"outputs":[],"stateMutability":"nonpayable"},{"type":"function","name":"batchGetHealthFactors","inputs":[{"name":"positionIds","type":"uint256[]","internalType":"uint256[]"}],"outputs":[{"name":"healthFactors","type":"uint256[]","internalType":"uint256[]"}],"stateMutability":"view"},{"type":"function","name":"batchGetPositions","inputs":[{"name":"positionIds","type":"uint256[]","internalType":"uint256[]"}],"outputs":[{"name":"views","type":"tuple[]","internalType":"struct IPositionViewer.PositionView[]","components":[{"name":"positionId","type":"uint256","internalType":"uint256"},{"name":"trader","type":"address","internalType":"address"},{"name":"marketId","type":"uint256","internalType":"uint256"},{"name":"isLong","type":"bool","internalType":"bool"},{"name":"size","type":"uint256","internalType":"uint256"},{"name":"margin","type":"uint256","internalType":"uint256"},{"name":"entryPrice","type":"uint256","internalType":"uint256"},{"name":"leverage","type":"uint256","internalType":"uint256"},{"name":"liquidationPrice","type":"uint256","internalType":"uint256"},{"name":"healthFactor","type":"uint256","internalType":"uint256"},{"name":"unrealizedPnl","type":"int256","internalType":"int256"},{"name":"fundingAccrued","type":"uint256","internalType":"uint256"},{"name":"openTime","type":"uint256","internalType":"uint256"},{"name":"lastUpdated","type":"uint256","internalType":"uint256"}]}],"stateMutability":"view"},{"type":"function","name":"batchIsLiquidatable","inputs":[{"name":"positionIds","type":"uint256[]","internalType":"uint256[]"},{"name":"currentPrices","type":"uint256[]","internalType":"uint256[]"}],"outputs":[{"name":"liquidatable","type":"bool[]","internalType":"bool[]"}],"stateMutability":"view"},{"type":"function","name":"closePosition","inputs":[{"name":"positionId","type":"uint256","internalType":"uint256"}],"outputs":[],"stateMutability":"nonpayable"},{"type":"function","name":"configRegistry","inputs":[],"outputs":[{"name":"","type":"address","internalType":"address"}],"stateMutability":"view"},{"type":"function","name":"decreasePosition","inputs":[{"name":"positionId","type":"uint256","internalType":"uint256"},{"name":"sizeReduced","type":"uint256","internalType":"uint256"},{"name":"marginReduced","type":"uint256","internalType":"uint256"}],"outputs":[],"stateMutability":"nonpayable"},{"type":"function","name":"getAvailableMargin","inputs":[{"name":"positionId","type":"uint256","internalType":"uint256"}],"outputs":[{"name":"availableMargin","type":"uint256","internalType":"uint256"}],"stateMutability":"view"},{"type":"function","name":"getFundingState","inputs":[{"name":"marketId","type":"uint256","internalType":"uint256"}],"outputs":[{"name":"","type":"tuple","internalType":"struct PerpEngine.FundingState","components":[{"name":"fundingRate","type":"int256","internalType":"int256"},{"name":"lastFundingTime","type":"uint256","internalType":"uint256"},{"name":"fundingAccumulatedLong","type":"uint256","internalType":"uint256"},{"name":"fundingAccumulatedShort","type":"uint256","internalType":"uint256"}]}],"stateMutability":"view"},{"type":"function","name":"getHealthFactor","inputs":[{"name":"positionId","type":"uint256","internalType":"uint256"}],"outputs":[{"name":"healthFactor","type":"uint256","internalType":"uint256"}],"stateMutability":"view"},{"type":"function","name":"getLiquidationPrice","inputs":[{"name":"positionId","type":"uint256","internalType":"uint256"}],"outputs":[{"name":"liquidationPrice","type":"uint256","internalType":"uint256"}],"stateMutability":"view"},{"type":"function","name":"getMarket","inputs":[{"name":"marketId","type":"uint256","internalType":"uint256"}],"outputs":[{"name":"","type":"tuple","internalType":"struct PerpEngine.Market","components":[{"name":"isActive","type":"bool","internalType":"bool"},{"name":"maxLeverage","type":"uint256","internalType":"uint256"},{"name":"minMarginRatio","type":"uint256","internalType":"uint256"},{"name":"minPositionSize","type":"uint256","internalType":"uint256"},{"name":"liquidationFeeRatio","type":"uint256","internalType":"uint256"},{"name":"protocolFeeRatio","type":"uint256","internalType":"uint256"},{"name":"oracleFeedId","type":"bytes32","internalType":"bytes32"},{"name":"lastPriceUpdate","type":"uint256","internalType":"uint256"},{"name":"lastFundingUpdate","type":"uint256","internalType":"uint256"}]}],"stateMutability":"view"},{"type":"function","name":"getMarketStats","inputs":[{"name":"marketId","type":"uint256","internalType":"uint256"}],"outputs":[{"name":"stats","type":"tuple","internalType":"struct IPositionViewer.PositionStats","components":[{"name":"totalPositions","type":"uint256","internalType":"uint256"},{"name":"totalLongSize","type":"uint256","internalType":"uint256"},{"name":"totalShortSize","type":"uint256","internalType":"uint256"},{"name":"totalMargin","type":"uint256","internalType":"uint256"},{"name":"totalPnl","type":"uint256","internalType":"uint256"}]}],"stateMutability":"view"},{"type":"function","name":"getMaxAdditionalSize","inputs":[{"name":"positionId","type":"uint256","internalType":"uint256"},{"name":"additionalMargin","type":"uint256","internalType":"uint256"}],"outputs":[{"name":"maxAdditionalSize","type":"uint256","internalType":"uint256"}],"stateMutability":"view"},{"type":"function","name":"getPosition","inputs":[{"name":"positionId","type":"uint256","internalType":"uint256"}],"outputs":[{"name":"viewData","type":"tuple","internalType":"struct IPositionViewer.PositionView","components":[{"name":"positionId","type":"uint256","internalType":"uint256"},{"name":"trader","type":"address","internalType":"address"},{"name":"marketId","type":"uint256","internalType":"uint256"},{"name":"isLong","type":"bool","internalType":"bool"},{"name":"size","type":"uint256","internalType":"uint256"},{"name":"margin","type":"uint256","internalType":"uint256"},{"name":"entryPrice","type":"uint256","internalType":"uint256"},{"name":"leverage","type":"uint256","internalType":"uint256"},{"name":"liquidationPrice","type":"uint256","internalType":"uint256"},{"name":"healthFactor","type":"uint256","internalType":"uint256"},{"name":"unrealizedPnl","type":"int256","internalType":"int256"},{"name":"fundingAccrued","type":"uint256","internalType":"uint256"},{"name":"openTime","type":"uint256","internalType":"uint256"},{"name":"lastUpdated","type":"uint256","internalType":"uint256"}]}],"stateMutability":"view"},{"type":"function","name":"getPositionInternal","inputs":[{"name":"positionId","type":"uint256","internalType":"uint256"}],"outputs":[{"name":"","type":"tuple","internalType":"struct IPerpEngine.Position","components":[{"name":"trader","type":"address","internalType":"address"},{"name":"marketId","type":"uint256","internalType":"uint256"},{"name":"isLong","type":"bool","internalType":"bool"},{"name":"size","type":"uint256","internalType":"uint256"},{"name":"margin","type":"uint256","internalType":"uint256"},{"name":"entryPrice","type":"uint256","internalType":"uint256"},{"name":"leverage","type":"uint256","internalType":"uint256"},{"name":"lastFundingAccrued","type":"uint256","internalType":"uint256"},{"name":"openTime","type":"uint256","internalType":"uint256"},{"name":"lastUpdated","type":"uint256","internalType":"uint256"},{"name":"isActive","type":"bool","internalType":"bool"}]}],"stateMutability":"view"},{"type":"function","name":"getPositionStats","inputs":[],"outputs":[{"name":"stats","type":"tuple","internalType":"struct IPositionViewer.PositionStats","components":[{"name":"totalPositions","type":"uint256","internalType":"uint256"},{"name":"totalLongSize","type":"uint256","internalType":"uint256"},{"name":"totalShortSize","type":"uint256","internalType":"uint256"},{"name":"totalMargin","type":"uint256","internalType":"uint256"},{"name":"totalPnl","type":"uint256","internalType":"uint256"}]}],"stateMutability":"view"},{"type":"function","name":"getPositionsByMarket","inputs":[{"name":"marketId","type":"uint256","internalType":"uint256"},{"name":"cursor","type":"uint256","internalType":"uint256"},{"name":"limit","type":"uint256","internalType":"uint256"}],"outputs":[{"name":"positions","type":"tuple[]","internalType":"struct IPositionViewer.PositionView[]","components":[{"name":"positionId","type":"uint256","internalType":"uint256"},{"name":"trader","type":"address","internalType":"address"},{"name":"marketId","type":"uint256","internalType":"uint256"},{"name":"isLong","type":"bool","internalType":"bool"},{"name":"size","type":"uint256","internalType":"uint256"},{"name":"margin","type":"uint256","internalType":"uint256"},{"name":"entryPrice","type":"uint256","internalType":"uint256"},{"name":"leverage","type":"uint256","internalType":"uint256"},{"name":"liquidationPrice","type":"uint256","internalType":"uint256"},{"name":"healthFactor","type":"uint256","internalType":"uint256"},{"name":"unrealizedPnl","type":"int256","internalType":"int256"},{"name":"fundingAccrued","type":"uint256","internalType":"uint256"},{"name":"openTime","type":"uint256","internalType":"uint256"},{"name":"lastUpdated","type":"uint256","internalType":"uint256"}]},{"name":"newCursor","type":"uint256","internalType":"uint256"}],"stateMutability":"view"},{"type":"function","name":"getPositionsByTrader","inputs":[{"name":"trader","type":"address","internalType":"address"},{"name":"cursor","type":"uint256","internalType":"uint256"},{"name":"limit","type":"uint256","internalType":"uint256"}],"outputs":[{"name":"positions","type":"tuple[]","internalType":"struct IPositionViewer.PositionView[]","components":[{"name":"positionId","type":"uint256","internalType":"uint256"},{"name":"trader","type":"address","internalType":"address"},{"name":"marketId","type":"uint256","internalType":"uint256"},{"name":"isLong","type":"bool","internalType":"bool"},{"name":"size","type":"uint256","internalType":"uint256"},{"name":"margin","type":"uint256","internalType":"uint256"},{"name":"entryPrice","type":"uint256","internalType":"uint256"},{"name":"leverage","type":"uint256","internalType":"uint256"},{"name":"liquidationPrice","type":"uint256","internalType":"uint256"},{"name":"healthFactor","type":"uint256","internalType":"uint256"},{"name":"unrealizedPnl","type":"int256","internalType":"int256"},{"name":"fundingAccrued","type":"uint256","internalType":"uint256"},{"name":"openTime","type":"uint256","internalType":"uint256"},{"name":"lastUpdated","type":"uint256","internalType":"uint256"}]},{"name":"newCursor","type":"uint256","internalType":"uint256"}],"stateMutability":"view"},{"type":"function","name":"getProtocolFees","inputs":[{"name":"token","type":"address","internalType":"address"}],"outputs":[{"name":"","type":"uint256","internalType":"uint256"}],"stateMutability":"view"},{"type":"function","name":"getTotalOpenInterest","inputs":[{"name":"marketId","type":"uint256","internalType":"uint256"}],"outputs":[{"name":"","type":"uint256","internalType":"uint256"}],"stateMutability":"view"},{"type":"function","name":"getTraderPositions","inputs":[{"name":"trader","type":"address","internalType":"address"}],"outputs":[{"name":"","type":"uint256[]","internalType":"uint256[]"}],"stateMutability":"view"},{"type":"function","name":"getUnrealizedPnl","inputs":[{"name":"positionId","type":"uint256","internalType":"uint256"},{"name":"currentPrice","type":"uint256","internalType":"uint256"}],"outputs":[{"name":"pnl","type":"int256","internalType":"int256"}],"stateMutability":"view"},{"type":"function","name":"governance","inputs":[],"outputs":[{"name":"","type":"address","internalType":"address"}],"stateMutability":"view"},{"type":"function","name":"increasePosition","inputs":[{"name":"positionId","type":"uint256","internalType":"uint256"},{"name":"sizeAdded","type":"uint256","internalType":"uint256"},{"name":"marginAdded","type":"uint256","internalType":"uint256"}],"outputs":[],"stateMutability":"nonpayable"},{"type":"function","name":"initializeMarket","inputs":[{"name":"marketId","type":"uint256","internalType":"uint256"},{"name":"oracleFeedId","type":"bytes32","internalType":"bytes32"},{"name":"maxLeverage","type":"uint256","internalType":"uint256"},{"name":"minMarginRatio","type":"uint256","internalType":"uint256"},{"name":"minPositionSize","type":"uint256","internalType":"uint256"},{"name":"liquidationFeeRatio","type":"uint256","internalType":"uint256"},{"name":"protocolFeeRatio","type":"uint256","internalType":"uint256"}],"outputs":[],"stateMutability":"nonpayable"},{"type":"function","name":"insuranceFund","inputs":[],"outputs":[{"name":"","type":"address","internalType":"address"}],"stateMutability":"view"},{"type":"function","name":"isPositionLiquidatable","inputs":[{"name":"positionId","type":"uint256","internalType":"uint256"},{"name":"currentPrice","type":"uint256","internalType":"uint256"}],"outputs":[{"name":"liquidatable","type":"bool","internalType":"bool"}],"stateMutability":"view"},{"type":"function","name":"liquidatePosition","inputs":[{"name":"params","type":"tuple","internalType":"struct IPerpEngine.LiquidateParams","components":[{"name":"positionId","type":"uint256","internalType":"uint256"},{"name":"trader","type":"address","internalType":"address"},{"name":"marketId","type":"uint256","internalType":"uint256"},{"name":"sizeToLiquidate","type":"uint256","internalType":"uint256"},{"name":"minReward","type":"uint256","internalType":"uint256"}]}],"outputs":[{"name":"liquidationReward","type":"uint256","internalType":"uint256"}],"stateMutability":"nonpayable"},{"type":"function","name":"liquidationEngine","inputs":[],"outputs":[{"name":"","type":"address","internalType":"address"}],"stateMutability":"view"},{"type":"function","name":"openPosition","inputs":[{"name":"params","type":"tuple","internalType":"struct IPerpEngine.TradeParams","components":[{"name":"marketId","type":"uint256","internalType":"uint256"},{"name":"isLong","type":"bool","internalType":"bool"},{"name":"size","type":"uint256","internalType":"uint256"},{"name":"margin","type":"uint256","internalType":"uint256"},{"name":"acceptablePrice","type":"uint256","internalType":"uint256"},{"name":"deadline","type":"uint256","internalType":"uint256"},{"name":"referralCode","type":"bytes32","internalType":"bytes32"}]}],"outputs":[{"name":"positionId","type":"uint256","internalType":"uint256"}],"stateMutability":"nonpayable"},{"type":"function","name":"oracleAggregator","inputs":[],"outputs":[{"name":"","type":"address","internalType":"address"}],"stateMutability":"view"},{"type":"function","name":"paused","inputs":[],"outputs":[{"name":"","type":"bool","internalType":"bool"}],"stateMutability":"view"},{"type":"function","name":"positionManager","inputs":[],"outputs":[{"name":"","type":"address","internalType":"address"}],"stateMutability":"view"},{"type":"function","name":"previewLiquidation","inputs":[{"name":"positionId","type":"uint256","internalType":"uint256"},{"name":"currentPrice","type":"uint256","internalType":"uint256"}],"outputs":[{"name":"reward","type":"uint256","internalType":"uint256"},{"name":"penalty","type":"uint256","internalType":"uint256"},{"name":"newHealthFactor","type":"uint256","internalType":"uint256"}],"stateMutability":"view"},{"type":"function","name":"quoteToken","inputs":[],"outputs":[{"name":"","type":"address","internalType":"contract IERC20"}],"stateMutability":"view"},{"type":"function","name":"removeMargin","inputs":[{"name":"positionId","type":"uint256","internalType":"uint256"},{"name":"amount","type":"uint256","internalType":"uint256"}],"outputs":[],"stateMutability":"nonpayable"},{"type":"function","name":"riskManager","inputs":[],"outputs":[{"name":"","type":"address","internalType":"address"}],"stateMutability":"view"},{"type":"function","name":"setGovernance","inputs":[{"name":"newGovernance","type":"address","internalType":"address"}],"outputs":[],"stateMutability":"nonpayable"},{"type":"function","name":"totalCollateral","inputs":[],"outputs":[{"name":"","type":"uint256","internalType":"uint256"}],"stateMutability":"view"},{"type":"function","name":"totalFeesAccrued","inputs":[],"outputs":[{"name":"","type":"uint256","internalType":"uint256"}],"stateMutability":"view"},{"type":"function","name":"totalFundingPaid","inputs":[],"outputs":[{"name":"","type":"int256","internalType":"int256"}],"stateMutability":"view"},{"type":"function","name":"totalFundingReceived","inputs":[],"outputs":[{"name":"","type":"int256","internalType":"int256"}],"stateMutability":"view"},{"type":"function","name":"totalPositionValue","inputs":[],"outputs":[{"name":"","type":"uint256","internalType":"uint256"}],"stateMutability":"view"},{"type":"function","name":"updateFundingParams","inputs":[{"name":"newFundingInterval","type":"uint256","internalType":"uint256"},{"name":"newMaxFundingRate","type":"uint256","internalType":"uint256"}],"outputs":[],"stateMutability":"nonpayable"},{"type":"function","name":"updateLiquidationPenalty","inputs":[{"name":"newLiquidationPenalty","type":"uint256","internalType":"uint256"}],"outputs":[],"stateMutability":"nonpayable"},{"type":"function","name":"updateProtocolFee","inputs":[{"name":"newProtocolFee","type":"uint256","internalType":"uint256"}],"outputs":[],"stateMutability":"nonpayable"},{"type":"event","name":"FundingAccrued","inputs":[{"name":"marketId","type":"uint256","indexed":true,"internalType":"uint256"},{"name":"fundingRate","type":"int256","indexed":false,"internalType":"int256"},{"name":"fundingTimestamp","type":"uint256","indexed":false,"internalType":"uint256"},{"name":"longFundingPayment","type":"uint256","indexed":false,"internalType":"uint256"},{"name":"shortFundingPayment","type":"uint256","indexed":false,"internalType":"uint256"}],"anonymous":false},{"type":"event","name":"FundingParamsUpdated","inputs":[{"name":"newFundingInterval","type":"uint256","indexed":false,"internalType":"uint256"},{"name":"newMaxFundingRate","type":"uint256","indexed":false,"internalType":"uint256"}],"anonymous":false},{"type":"event","name":"LiquidationPenaltyUpdated","inputs":[{"name":"newLiquidationPenalty","type":"uint256","indexed":false,"internalType":"uint256"}],"anonymous":false},{"type":"event","name":"MarketInitialized","inputs":[{"name":"marketId","type":"uint256","indexed":true,"internalType":"uint256"},{"name":"oracleFeedId","type":"bytes32","indexed":false,"internalType":"bytes32"}],"anonymous":false},{"type":"event","name":"Paused","inputs":[{"name":"account","type":"address","indexed":false,"internalType":"address"}],"anonymous":false},{"type":"event","name":"PositionClosed","inputs":[{"name":"positionId","type":"uint256","indexed":true,"internalType":"uint256"},{"name":"exitPrice","type":"uint256","indexed":false,"internalType":"uint256"},{"name":"pnl","type":"uint256","indexed":false,"internalType":"uint256"},{"name":"fee","type":"uint256","indexed":false,"internalType":"uint256"},{"name":"returnedMargin","type":"uint256","indexed":false,"internalType":"uint256"}],"anonymous":false},{"type":"event","name":"PositionDecreased","inputs":[{"name":"positionId","type":"uint256","indexed":true,"internalType":"uint256"},{"name":"sizeReduced","type":"uint256","indexed":false,"internalType":"uint256"},{"name":"marginReduced","type":"uint256","indexed":false,"internalType":"uint256"},{"name":"pnl","type":"uint256","indexed":false,"internalType":"uint256"},{"name":"fee","type":"uint256","indexed":false,"internalType":"uint256"}],"anonymous":false},{"type":"event","name":"PositionIncreased","inputs":[{"name":"positionId","type":"uint256","indexed":true,"internalType":"uint256"},{"name":"sizeAdded","type":"uint256","indexed":false,"internalType":"uint256"},{"name":"marginAdded","type":"uint256","indexed":false,"internalType":"uint256"},{"name":"newEntryPrice","type":"uint256","indexed":false,"internalType":"uint256"},{"name":"fee","type":"uint256","indexed":false,"internalType":"uint256"}],"anonymous":false},{"type":"event","name":"PositionLiquidated","inputs":[{"name":"positionId","type":"uint256","indexed":true,"internalType":"uint256"},{"name":"liquidator","type":"address","indexed":true,"internalType":"address"},{"name":"liquidationPrice","type":"uint256","indexed":false,"internalType":"uint256"},{"name":"penalty","type":"uint256","indexed":false,"internalType":"uint256"},{"name":"reward","type":"uint256","indexed":false,"internalType":"uint256"}],"anonymous":false},{"type":"event","name":"PositionOpened","inputs":[{"name":"positionId","type":"uint256","indexed":true,"internalType":"uint256"},{"name":"trader","type":"address","indexed":true,"internalType":"address"},{"name":"marketId","type":"uint256","indexed":true,"internalType":"uint256"},{"name":"isLong","type":"bool","indexed":false,"internalType":"bool"},{"name":"size","type":"uint256","indexed":false,"internalType":"uint256"},{"name":"margin","type":"uint256","indexed":false,"internalType":"uint256"},{"name":"entryPrice","type":"uint256","indexed":false,"internalType":"uint256"},{"name":"leverage","type":"uint256","indexed":false,"internalType":"uint256"},{"name":"fee","type":"uint256","indexed":false,"internalType":"uint256"}],"anonymous":false},{"type":"event","name":"ProtocolFeeUpdated","inputs":[{"name":"newProtocolFee","type":"uint256","indexed":false,"internalType":"uint256"}],"anonymous":false},{"type":"event","name":"Unpaused","inputs":[{"name":"account","type":"address","indexed":false,"internalType":"address"}],"anonymous":false},{"type":"error","name":"DivisionByZero","inputs":[]},{"type":"error","name":"InvalidMaintenanceMargin","inputs":[{"name":"margin","type":"uint256","internalType":"uint256"}]},{"type":"error","name":"PriceTooSmall","inputs":[{"name":"price","type":"uint256","internalType":"uint256"}]},{"type":"error","name":"ZeroEntryPrice","inputs":[]},{"type":"error","name":"ZeroSize","inputs":[]}],"bytecode":{"object":"0x6101a06040523480156200001257600080fd5b506040516200622938038062006229833981016040819052620000359162000342565b60016000819055805460ff191690556001600160a01b0389166200008f5760405162461bcd60e51b815260206004820152601860248201526000805160206200620983398151915260448201526064015b60405180910390fd5b6001600160a01b038816620000d65760405162461bcd60e51b8152602060048201526018602482015260008051602062006209833981519152604482015260640162000086565b6001600160a01b0387166200011d5760405162461bcd60e51b8152602060048201526018602482015260008051602062006209833981519152604482015260640162000086565b6001600160a01b038616620001645760405162461bcd60e51b8152602060048201526018602482015260008051602062006209833981519152604482015260640162000086565b6001600160a01b038516620001ab5760405162461bcd60e51b8152602060048201526018602482015260008051602062006209833981519152604482015260640162000086565b6001600160a01b038416620001f25760405162461bcd60e51b8152602060048201526018602482015260008051602062006209833981519152604482015260640162000086565b6001600160a01b038316620002395760405162461bcd60e51b8152602060048201526018602482015260008051602062006209833981519152604482015260640162000086565b6001600160a01b038216620002805760405162461bcd60e51b8152602060048201526018602482015260008051602062006209833981519152604482015260640162000086565b6001600160a01b038116620002c75760405162461bcd60e51b8152602060048201526018602482015260008051602062006209833981519152604482015260640162000086565b6001600160a01b0398891660805296881660a05294871660c05292861660e052908516610100528416610120528316610140819052600980546001600160a01b031916909117905582166101605216610180526001600255620003fd565b80516001600160a01b03811681146200033d57600080fd5b919050565b60008060008060008060008060006101208a8c0312156200036257600080fd5b6200036d8a62000325565b98506200037d60208b0162000325565b97506200038d60408b0162000325565b96506200039d60608b0162000325565b9550620003ad60808b0162000325565b9450620003bd60a08b0162000325565b9350620003cd60c08b0162000325565b9250620003dd60e08b0162000325565b9150620003ee6101008b0162000325565b90509295985092959850929598565b60805160a05160c05160e0516101005161012051610140516101605161018051615ca66200056360003960008181610383015281816114d801528181611d9d0152818161287b01528181612daa015281816132af015281816137b70152818161415e015281816141920152614bba0152600061077e01526000818161073b01526141b4015260006103aa01526000818161049d015261489e01526000818161047601528181610cd10152613bf0015260008181610682015281816142f90152818161438f0152614af30152600081816103440152818161094901528181610b6401528181610dd30152818161151801528181611f8e01528181612056015281816123b20152818161263b0152818161273901528181612e04015281816131180152818161355201528181613699015281816138d30152818161408e01526149c501526000818161061e01528181611801015281816128b8015261400f0152615ca66000f3fe608060405234801561001057600080fd5b50600436106102f15760003560e01c80636cfcf6531161019d578063b7902303116100e9578063d41194b8116100a2578063eb44fdd31161007c578063eb44fdd314610819578063f0d13a481461089b578063f27dd8ab146108ae578063fba849b7146108d757600080fd5b8063d41194b8146107d3578063da36992a146107e6578063eb02c301146107f957600080fd5b8063b790230314610736578063b7be414c1461075d578063b8d1e89014610766578063c55dae6314610779578063d19f42d2146107a0578063d2080311146107c057600080fd5b806383afd17d11610156578063a572c3e811610130578063a572c3e8146106b7578063ab033ea9146106ca578063b0e8f41b146106dd578063b4acb042146106f057600080fd5b806383afd17d146106665780638dffe3f41461067d578063a126d601146106a457600080fd5b80636cfcf653146105f55780636fee4f10146105fd57806373f38ee014610610578063791b98bc146106195780637de4c2021461064057806380691f3c1461065357600080fd5b806344bf3c721161025c57806353e06778116102155780635a492294116101ef5780635a492294146105a45780635aa6e675146105b75780635c975abb146105ca5780635fbbb2ff146105d557600080fd5b806353e067781461051c57806357917a111461053c57806358057fe51461054f57600080fd5b806344bf3c7214610471578063478426631461049857806348bf9a38146104bf5780634ac8eb5f146104e05780634b8f4381146104e957806352c9b0ed146104fc57600080fd5b80632c854f23116102ae5780632c854f23146103fa5780632dd45bdb1461040d5780632f78fbf31461042d57806336c3c240146104425780634256dd7814610455578063431460821461046857600080fd5b80630c5c123b146102f657806317845c691461031e5780631899b5061461033f578063217a4b701461037e578063244bb309146103a557806329674444146103cc575b600080fd5b610309610304366004615384565b6108e0565b60405190151581526020015b60405180910390f35b61033161032c3660046153a6565b610ab3565b604051908152602001610315565b6103667f000000000000000000000000000000000000000000000000000000000000000081565b6040516001600160a01b039091168152602001610315565b6103667f000000000000000000000000000000000000000000000000000000000000000081565b6103667f000000000000000000000000000000000000000000000000000000000000000081565b6103df6103da366004615384565b610ca5565b60408051938452602084019290925290820152606001610315565b6103316104083660046153a6565b610d49565b61042061041b36600461540b565b610f19565b6040516103159190615477565b61044061043b3660046154bd565b610fe3565b005b610331610450366004615509565b611183565b6104406104633660046153a6565b611910565b610331600b5481565b6103667f000000000000000000000000000000000000000000000000000000000000000081565b6103667f000000000000000000000000000000000000000000000000000000000000000081565b6104d26104cd366004615538565b6119bd565b604051610315929190615659565b610331600a5481565b6104406104f7366004615384565b611ae1565b61033161050a3660046153a6565b60009081526008602052604090205490565b61052f61052a36600461567b565b611dd9565b60405161031591906156bd565b61044061054a3660046153a6565b611e93565b61056261055d3660046153a6565b611f39565b6040516103159190600060a082019050825182526020830151602083015260408301516040830152606083015160608301526080830151608083015292915050565b6104406105b2366004615384565b61200f565b600954610366906001600160a01b031681565b60015460ff16610309565b6105e86105e33660046156d0565b6120f1565b60405161031591906156eb565b61056261215d565b61033161060b366004615384565b6121ab565b610331600e5481565b6103667f000000000000000000000000000000000000000000000000000000000000000081565b6105e861064e36600461567b565b612295565b6103316106613660046153a6565b612337565b6104d2610674366004615723565b50606092909150565b6103667f000000000000000000000000000000000000000000000000000000000000000081565b6104406106b23660046153a6565b612518565b6104406106c53660046153a6565b612995565b6104406106d83660046156d0565b6129e1565b6104406106eb36600461567b565b612a83565b6107036106fe3660046153a6565b612b0c565b60405161031591908151815260208083015190820152604080830151908201526060918201519181019190915260800190565b6103667f000000000000000000000000000000000000000000000000000000000000000081565b610331600c5481565b610440610774366004615723565b612b7c565b6103667f000000000000000000000000000000000000000000000000000000000000000081565b6107b36107ae3660046153a6565b612f73565b604051610315919061574f565b6103316107ce366004615384565b613080565b6104406107e1366004615384565b6131cc565b6104406107f4366004615723565b61336e565b61080c6108073660046153a6565b613853565b60405161031591906157dd565b61082c6108273660046153a6565b613b0a565b60405161031591906000610120820190508251151582526020830151602083015260408301516040830152606083015160608301526080830151608083015260a083015160a083015260c083015160c083015260e083015160e083015261010080840151818401525092915050565b6103316108a93660046157ec565b613bdb565b6103316108bc3660046156d0565b6001600160a01b031660009081526007602052604090205490565b610331600d5481565b6000828152600360205260408120600a81015460ff16610904576000915050610aad565b600181015460038201546002830154600784015460405163132029e760e01b81526004810194909452602484019290925260ff161515604483015260648201526000907f00000000000000000000000000000000000000000000000000000000000000006001600160a01b03169063132029e790608401602060405180830381865afa158015610998573d6000803e3d6000fd5b505050506040513d601f19601f820116820180604052508101906109bc91906157fe565b905060006109fa6109d26402540be4008761582d565b670de0b6b3a7640000600085136109f1576109ec85615844565b6109f3565b845b9190614233565b90506000821215610a1157610a0e81615844565b90505b6040805160a0810182526003850154815260048501546020820152600585015481830152600285015460ff16151560608201526080810183905281518083019092529060009080610a6c612710670de0b6b3a7640000615876565b6001880154600090815260046020526040902060020154610a8d9190615876565b81526020016127108152509050610aa582888361426b565b955050505050505b92915050565b6000818152600360205260408120600a81015460ff16610aee5760405162461bcd60e51b8152600401610ae590615898565b60405180910390fd5b600080610afe83600101546142ac565b9150915080610b1f5760405162461bcd60e51b8152600401610ae5906158cf565b600183015460038401546002850154600786015460405163132029e760e01b81526004810194909452602484019290925260ff161515604483015260648201526000907f00000000000000000000000000000000000000000000000000000000000000006001600160a01b03169063132029e790608401602060405180830381865afa158015610bb3573d6000803e3d6000fd5b505050506040513d601f19601f82011682018060405250810190610bd791906157fe565b90506000610bed6109d26402540be4008661582d565b90506000821215610c0457610c0181615844565b90505b6040805160a0810182526003870154815260048701546020820152600587015481830152600287015460ff16151560608201526080810183905281518083019092529060009080610c5f612710670de0b6b3a7640000615876565b60018a0154600090815260046020526040902060020154610c809190615876565b81526020016127108152509050610c9882878361440d565b9998505050505050505050565b604051630a59d11160e21b81526004810183905260248101829052600090819081906001600160a01b037f00000000000000000000000000000000000000000000000000000000000000001690632967444490604401606060405180830381865afa158015610d18573d6000803e3d6000fd5b505050506040513d601f19601f82011682018060405250810190610d3c9190615906565b9250925092509250925092565b6000818152600360205260408120600a81015460ff16610d7b5760405162461bcd60e51b8152600401610ae590615898565b6000610d8a82600101546142ac565b50600183015460038401546002850154600786015460405163132029e760e01b81526004810194909452602484019290925260ff161515604483015260648201529091506000907f00000000000000000000000000000000000000000000000000000000000000006001600160a01b03169063132029e790608401602060405180830381865afa158015610e22573d6000803e3d6000fd5b505050506040513d601f19601f82011682018060405250810190610e4691906157fe565b90506000610e5c6109d26402540be4008561582d565b90506000821215610e7357610e7081615844565b90505b6040805160a0810182526003860154815260048601546020820152600586015481830152600286015460ff16151560608201526080810183905281518083019092529060009080610ece612710670de0b6b3a7640000615876565b6001890154600090815260046020526040902060020154610eef9190615876565b815260200161271081525090506000610f088383614512565b602001519998505050505050505050565b60608367ffffffffffffffff811115610f3457610f34615934565b604051908082528060200260200182016040528015610f5d578160200160208202803683370190505b50905060005b84811015610fd957610fa5868683818110610f8057610f8061594a565b90506020020135858584818110610f9957610f9961594a565b905060200201356108e0565b828281518110610fb757610fb761594a565b9115156020928302919091019091015280610fd181615960565b915050610f63565b505b949350505050565b6009546001600160a01b0316331461100d5760405162461bcd60e51b8152600401610ae590615979565b60008781526004602052604090205460ff16156110765760405162461bcd60e51b815260206004820152602160248201527f50657270456e67696e653a206d61726b657420616c72656164792061637469766044820152606560f81b6064820152608401610ae5565b604051806101200160405280600115158152602001868152602001858152602001848152602001838152602001828152602001878152602001428152602001428152506004600089815260200190815260200160002060008201518160000160006101000a81548160ff0219169083151502179055506020820151816001015560408201518160020155606082015181600301556080820151816004015560a0820151816005015560c0820151816006015560e082015181600701556101008201518160080155905050867f402b8326756fdc4732b4dc411ccaa8e1611c5df265327b93776f0c3034c90df68760405161117291815260200190565b60405180910390a250505050505050565b600061118d6146eb565b611195614744565b813560008181526004602052604090205460ff166111c55760405162461bcd60e51b8152600401610ae5906159b0565b8235600090815260046020526040908190206003015490840135101561122d5760405162461bcd60e51b815260206004820152601760248201527f506f736974696f6e2073697a6520746f6f20736d616c6c0000000000000000006044820152606401610ae5565b60008360400135116112795760405162461bcd60e51b815260206004820152601560248201527450657270456e67696e653a207a65726f2073697a6560581b6044820152606401610ae5565b60008360600135116112c75760405162461bcd60e51b81526020600482015260176024820152762832b93822b733b4b7329d103d32b9379036b0b933b4b760491b6044820152606401610ae5565b428360a00135101561131b5760405162461bcd60e51b815260206004820152601b60248201527f50657270456e67696e653a20646561646c696e652070617373656400000000006044820152606401610ae5565b60008061132885356142ac565b91509150806113495760405162461bcd60e51b8152600401610ae5906158cf565b61135960408601602087016159f5565b156113b75784608001358211156113b25760405162461bcd60e51b815260206004820152601a60248201527f50657270456e67696e653a20707269636520746f6f20686967680000000000006044820152606401610ae5565b61140b565b846080013582101561140b5760405162461bcd60e51b815260206004820152601960248201527f50657270456e67696e653a20707269636520746f6f206c6f77000000000000006044820152606401610ae5565b600061141c6402540be4008461582d565b90506000611437604088013583670de0b6b3a7640000614233565b9050600061145282670de0b6b3a764000060608b0135614233565b9050611467670de0b6b3a7640000606461582d565b8111156114b65760405162461bcd60e51b815260206004820152601d60248201527f50657270456e67696e653a206c6576657261676520746f6f20686967680000006044820152606401610ae5565b6114cb883560408a013560608b01358461478c565b6115046001600160a01b037f000000000000000000000000000000000000000000000000000000000000000016333060608c013561493b565b61150e88356149ac565b6001600160a01b037f000000000000000000000000000000000000000000000000000000000000000016637d1061ec893561154f60408c0160208d016159f5565b604080516001600160e01b031960e086901b168152600481019390935290151560248301528b01356044820152606401600060405180830381600087803b15801561159957600080fd5b505af11580156115ad573d6000803e3d6000fd5b5050600280549250905060006115c283615960565b919050559650604051806101600160405280336001600160a01b031681526020018960000135815260200189602001602081019061160091906159f5565b151581526020018960400135815260200189606001358152602001868152602001828152602001428152602001428152602001428152602001600115158152506003600089815260200190815260200160002060008201518160000160006101000a8154816001600160a01b0302191690836001600160a01b031602179055506020820151816001015560408201518160020160006101000a81548160ff021916908315150217905550606082015181600301556080820151816004015560a0820151816005015560c0820151816006015560e082015181600701556101008201518160080155610120820151816009015561014082015181600a0160006101000a81548160ff02191690831515021790555090505060056000336001600160a01b03166001600160a01b031681526020019081526020016000208790806001815401808255809150506001900390600052602060002001600090919091909150558760400135600860008a600001358152602001908152602001600020600082825461178d9190615a12565b925050819055508760600135600a60008282546117aa9190615a12565b925050819055508760400135600b60008282546117c79190615a12565b90915550600090506117e28860408b013560608c0135614ab5565b6040516340c10f1960e01b8152336004820152602481018a90529091507f00000000000000000000000000000000000000000000000000000000000000006001600160a01b0316906340c10f1990604401600060405180830381600087803b15801561184d57600080fd5b505af1158015611861573d6000803e3d6000fd5b50508a359150339050897faeb29b09aa1af8883c3dc478cfc095470cc8d59764bfbfcb130bf3fb8672f85561189c60408e0160208f016159f5565b8d60400135600360008f8152602001908152602001600020600401548c89896040516118f2969594939291909515158652602086019490945260408501929092526060840152608083015260a082015260c00190565b60405180910390a45050505050505061190b6001600055565b919050565b6009546001600160a01b0316331461193a5760405162461bcd60e51b8152600401610ae590615979565b606460015b8181116119845760008181526004602052604090205460ff16156119725760008181526004602052604090206005018390555b8061197c81615960565b91505061193f565b506040518281527fd10d75876659a287a59a6ccfa2e3fff42f84d94b542837acd30bc184d562de40906020015b60405180910390a15050565b6001600160a01b0383166000908152600560205260408120805460609291908086106119ec579150611ad99050565b60006119f88688615a12565b905081811115611a055750805b6000611a118883615a25565b90508067ffffffffffffffff811115611a2c57611a2c615934565b604051908082528060200260200182016040528015611a6557816020015b611a5261530a565b815260200190600190039081611a4a5790505b50955060005b81811015611ad157611aa185611a81838c615a12565b81548110611a9157611a9161594a565b9060005260206000200154613853565b878281518110611ab357611ab361594a565b60200260200101819052508080611ac990615960565b915050611a6b565b509093505050505b935093915050565b611ae96146eb565b611af1614744565b6000828152600360205260409020600a0154829060ff16611b245760405162461bcd60e51b8152600401610ae590615a38565b600083815260036020526040902080546001600160a01b03163314611b5b5760405162461bcd60e51b8152600401610ae590615a6f565b60008311611ba55760405162461bcd60e51b815260206004820152601760248201527614195c9c115b99da5b994e881e995c9bc8185b5bdd5b9d604a1b6044820152606401610ae5565b8060040154831115611bc95760405162461bcd60e51b8152600401610ae590615aa6565b600080611bd983600101546142ac565b9150915080611bfa5760405162461bcd60e51b8152600401610ae5906158cf565b611c0783600101546149ac565b6000858460040154611c199190615a25565b6040805160a0810182526003870154815260208101839052600587015481830152600287015460ff1615156060820152600060808201819052825180840190935292935090829080611c75612710670de0b6b3a7640000615876565b60018a0154600090815260046020526040902060020154611c969190615876565b81526020016127108152509050611cae82878361440d565b92505050670de0b6b3a76400008111611d195760405162461bcd60e51b815260206004820152602760248201527f50657270456e67696e653a2062656c6f77206c69717569646174696f6e2074686044820152661c995cda1bdb1960ca1b6064820152608401610ae5565b81856004018190555086600a6000828254611d349190615a25565b9091555060009050611d62611d4e6402540be4008761582d565b600388015490670de0b6b3a7640000614233565b9050611d85670de0b6b3a76400008760040154836142339092919063ffffffff16565b6006870155426009870155611dc46001600160a01b037f000000000000000000000000000000000000000000000000000000000000000016338a614cb3565b50505050505050611dd56001600055565b5050565b60608167ffffffffffffffff811115611df457611df4615934565b604051908082528060200260200182016040528015611e2d57816020015b611e1a61530a565b815260200190600190039081611e125790505b50905060005b82811015611e8c57611e5c848483818110611e5057611e5061594a565b90506020020135613853565b828281518110611e6e57611e6e61594a565b60200260200101819052508080611e8490615960565b915050611e33565b5092915050565b6009546001600160a01b03163314611ebd5760405162461bcd60e51b8152600401610ae590615979565b606460015b818111611f085760008181526004602052604090205460ff1615611ef6576000818152600460208190526040909120018390555b80611f0081615960565b915050611ec2565b506040518281527fbfb22c07314f4682bba789860ceb851eb8cea2d867920332b2a42cf56be5b2e9906020016119b1565b611f6b6040518060a0016040528060008152602001600081526020016000815260200160008152602001600081525090565b604051631405555b60e21b81526004810183905260009081906001600160a01b037f00000000000000000000000000000000000000000000000000000000000000001690635015556c90602401606060405180830381865afa158015611fd5573d6000803e3d6000fd5b505050506040513d601f19601f82011682018060405250810190611ff99190615906565b5060208501919091526040840152509092915050565b6009546001600160a01b031633146120395760405162461bcd60e51b8152600401610ae590615979565b604051632f7f8ad160e21b815260006004820152602481018390527f00000000000000000000000000000000000000000000000000000000000000006001600160a01b03169063bdfe2b4490604401600060405180830381600087803b1580156120a257600080fd5b505af11580156120b6573d6000803e3d6000fd5b505060408051858152602081018590527ff68e1825a04d8b7eaccf6f317b784f87d5d82d253161a13be21195b812d28b1893500190506119b1565b6001600160a01b03811660009081526005602090815260409182902080548351818402810184019094528084526060939283018282801561215157602002820191906000526020600020905b81548152602001906001019080831161213d575b50505050509050919050565b61218f6040518060a0016040528060008152602001600081526020016000815260200160008152602001600081525090565b600160025461219e9190615a25565b8152600a54606082015290565b6000828152600360205260408120600a81015460ff166121cf576000915050610aad565b60006121de82600101546142ac565b50905060008483600401546121f39190615a12565b9050600061221d6122096402540be4008561582d565b600386015490670de0b6b3a7640000614233565b6001808601546000908152600460205260408120909101549192509061224d908490670de0b6b3a7640000614233565b905081811161226457600095505050505050610aad565b60006122708383615a25565b9050610c98670de0b6b3a764000061228d6402540be4008861582d565b839190614233565b60608167ffffffffffffffff8111156122b0576122b0615934565b6040519080825280602002602001820160405280156122d9578160200160208202803683370190505b50905060005b82811015611e8c576123088484838181106122fc576122fc61594a565b90506020020135610ab3565b82828151811061231a5761231a61594a565b60209081029190910101528061232f81615960565b9150506122df565b6000818152600360205260408120600a81015460ff1661235a5750600092915050565b600061236982600101546142ac565b50600183015460038401546002850154600786015460405163132029e760e01b81526004810194909452602484019290925260ff161515604483015260648201529091506000907f00000000000000000000000000000000000000000000000000000000000000006001600160a01b03169063132029e790608401602060405180830381865afa158015612401573d6000803e3d6000fd5b505050506040513d601f19601f8201168201806040525081019061242591906157fe565b9050600061243b6109d26402540be4008561582d565b905060008212156124525761244f81615844565b90505b60058401546003850154600286015460009261247592909187919060ff16614ce3565b905060008282876004015461248a9190615add565b6124949190615afd565b9050600081136124ac57506000979650505050505050565b60018601546000908152600460205260408120600201546124f690670de0b6b3a76400006109f36124e26402540be4008b61582d565b60038c015490670de0b6b3a7640000614233565b905080821161250e5750600098975050505050505050565b610c988183615a25565b6125206146eb565b612528614744565b6000818152600360205260409020600a0154819060ff1661255b5760405162461bcd60e51b8152600401610ae590615a38565b600082815260036020526040902080546001600160a01b031633146125925760405162461bcd60e51b8152600401610ae590615a6f565b6000806125a283600101546142ac565b91509150806125c35760405162461bcd60e51b8152600401610ae5906158cf565b6125d083600101546149ac565b6005830154600384015460028501546000926125f392909186919060ff16614ce3565b600185015460038601546002870154600788015460405163132029e760e01b81526004810194909452602484019290925260ff161515604483015260648201529091506000907f00000000000000000000000000000000000000000000000000000000000000006001600160a01b03169063132029e790608401602060405180830381865afa15801561268a573d6000803e3d6000fd5b505050506040513d601f19601f820116820180604052508101906126ae91906157fe565b905060006126c46109d26402540be4008761582d565b905060008212156126db576126d881615844565b90505b60006126e78285615add565b90508660040154600a60008282546126ff9190615a25565b90915550506003870154600b805460009061271b908490615a25565b90915550506001870154600288015460038901546001600160a01b037f00000000000000000000000000000000000000000000000000000000000000001692637d1061ec92909160ff9091169061277190615844565b6040516001600160e01b031960e086901b168152600481019390935290151560248301526044820152606401600060405180830381600087803b1580156127b757600080fd5b505af11580156127cb573d6000803e3d6000fd5b5050506003880154600189015460009081526008602052604081208054929350916127f7908490615a25565b90915550600090508082131561281e578188600401546128179190615a12565b9050612856565b60008289600401546128309190615add565b905060008112156128535760405162461bcd60e51b8152600401610ae590615aa6565b90505b600a8801805460ff1916905542600989015580156128a2576128a26001600160a01b037f0000000000000000000000000000000000000000000000000000000000000000163383614cb3565b604051630852cd8d60e31b8152600481018b90527f00000000000000000000000000000000000000000000000000000000000000006001600160a01b0316906342966c6890602401600060405180830381600087803b15801561290457600080fd5b505af1158015612918573d6000803e3d6000fd5b50505050897fa5ffa54c20fe3f85702db9dfbd52388f27504faa97794a1edfe2b2cafeb1a4838860008812156129565761295188615844565b612958565b875b6040805192835260208301919091526000908201526060810184905260800160405180910390a25050505050505050506129926001600055565b50565b61299d6146eb565b600081815260046020526040902054819060ff166129cd5760405162461bcd60e51b8152600401610ae5906159b0565b6129d6826149ac565b506129926001600055565b6009546001600160a01b03163314612a0b5760405162461bcd60e51b8152600401610ae590615979565b6001600160a01b038116612a615760405162461bcd60e51b815260206004820152601860248201527f50657270456e67696e653a207a65726f206164647265737300000000000000006044820152606401610ae5565b600980546001600160a01b0319166001600160a01b0392909216919091179055565b612a8b6146eb565b60005b81811015612b015760046000848484818110612aac57612aac61594a565b602090810292909201358352508101919091526040016000205460ff1615612aef57612aef838383818110612ae357612ae361594a565b905060200201356149ac565b80612af981615960565b915050612a8e565b50611dd56001600055565b612b376040518060800160405280600081526020016000815260200160008152602001600081525090565b50600090815260066020908152604091829020825160808101845281548152600182015492810192909252600281015492820192909252600390910154606082015290565b612b846146eb565b612b8c614744565b6000838152600360205260409020600a0154839060ff16612bbf5760405162461bcd60e51b8152600401610ae590615a38565b600084815260036020526040902080546001600160a01b03163314612bf65760405162461bcd60e51b8152600401610ae590615a6f565b60008411612c3e5760405162461bcd60e51b815260206004820152601560248201527450657270456e67696e653a207a65726f2073697a6560581b6044820152606401610ae5565b60008311612c885760405162461bcd60e51b81526020600482015260176024820152762832b93822b733b4b7329d103d32b9379036b0b933b4b760491b6044820152606401610ae5565b600080612c9883600101546142ac565b9150915080612cb95760405162461bcd60e51b8152600401610ae5906158cf565b612cc683600101546149ac565b6000868460030154612cd89190615a12565b90506000868560040154612cec9190615a12565b90506000612d12612d026402540be4008761582d565b8490670de0b6b3a7640000614233565b90506000612d2982670de0b6b3a764000085614233565b9050612d3e670de0b6b3a7640000606461582d565b811115612d8d5760405162461bcd60e51b815260206004820152601d60248201527f50657270456e67696e653a206c6576657261676520746f6f20686967680000006044820152606401610ae5565b612d9d876001015485858461478c565b612dd26001600160a01b037f00000000000000000000000000000000000000000000000000000000000000001633308c61493b565b60018701546002880154604051631f44187b60e21b8152600481019290925260ff1615156024820152604481018b90527f00000000000000000000000000000000000000000000000000000000000000006001600160a01b031690637d1061ec90606401600060405180830381600087803b158015612e5057600080fd5b505af1158015612e64573d6000803e3d6000fd5b5050505060008760030154905089600a6000828254612e839190615a12565b925050819055508a600b6000828254612e9c9190615a12565b90915550506003880185905560048801849055600688018290556005880154612ec89082908d8a614d35565b60058901554260098901556001880154600090815260086020526040812080548d9290612ef6908490615a12565b9091555060009050612f098d8d8d614ab5565b60058a0154604080518f8152602081018f90528082019290925260608201839052519192508e917fcad3eab700abc5a7d00b99aad655d6b545e5b08dbe97eea463ab8e97bbb824ab9181900360800190a250505050505050505050612f6e6001600055565b505050565b612fdd60405180610160016040528060006001600160a01b0316815260200160008152602001600015158152602001600081526020016000815260200160008152602001600081526020016000815260200160008152602001600081526020016000151581525090565b5060009081526003602081815260409283902083516101608101855281546001600160a01b03168152600182015492810192909252600281015460ff90811615159483019490945291820154606082015260048201546080820152600582015460a0820152600682015460c0820152600782015460e082015260088201546101008201526009820154610120820152600a90910154909116151561014082015290565b6000828152600360205260408120600a81015460ff166130b25760405162461bcd60e51b8152600401610ae590615898565b6005810154600382015460028301546130d09291869160ff16614ce3565b600182015460038301546002840154600785015460405163132029e760e01b81526004810194909452602484019290925260ff161515604483015260648201529092506000907f00000000000000000000000000000000000000000000000000000000000000006001600160a01b03169063132029e790608401602060405180830381865afa158015613167573d6000803e3d6000fd5b505050506040513d601f19601f8201168201806040525081019061318b91906157fe565b905060006131a16109d26402540be4008761582d565b905060008212156131b8576131b581615844565b90505b6131c28185615add565b9695505050505050565b6131d46146eb565b6131dc614744565b6000828152600360205260409020600a0154829060ff1661320f5760405162461bcd60e51b8152600401610ae590615a38565b600083815260036020526040902080546001600160a01b031633146132465760405162461bcd60e51b8152600401610ae590615a6f565b600083116132905760405162461bcd60e51b815260206004820152601760248201527614195c9c115b99da5b994e881e995c9bc8185b5bdd5b9d604a1b6044820152606401610ae5565b600061329f82600101546142ac565b5090506132d76001600160a01b037f00000000000000000000000000000000000000000000000000000000000000001633308761493b565b838260040160008282546132eb9190615a12565b9250508190555083600a60008282546133049190615a12565b909155506000905061333261331e6402540be4008461582d565b600385015490670de0b6b3a7640000614233565b9050613355670de0b6b3a76400008460040154836142339092919063ffffffff16565b600684015550504260099091015550611dd56001600055565b6133766146eb565b61337e614744565b6000838152600360205260409020600a0154839060ff166133b15760405162461bcd60e51b8152600401610ae590615a38565b600084815260036020526040902080546001600160a01b031633146133e85760405162461bcd60e51b8152600401610ae590615a6f565b6000841180156133fc575080600301548411155b6134535760405162461bcd60e51b815260206004820152602260248201527f50657270456e67696e653a20696e76616c69642073697a65207265647563746960448201526137b760f11b6064820152608401610ae5565b80600401548311156134b35760405162461bcd60e51b8152602060048201526024808201527f50657270456e67696e653a20696e76616c6964206d617267696e2072656475636044820152633a34b7b760e11b6064820152608401610ae5565b6000806134c383600101546142ac565b91509150806134e45760405162461bcd60e51b8152600401610ae5906158cf565b6134f183600101546149ac565b6005830154600284015460009161350e9185908a9060ff16614ce3565b60018501546002860154600787015460405163132029e760e01b81526004810193909352602483018b905260ff9091161515604483015260648201529091506000907f00000000000000000000000000000000000000000000000000000000000000006001600160a01b03169063132029e790608401602060405180830381865afa1580156135a1573d6000803e3d6000fd5b505050506040513d601f19601f820116820180604052508101906135c591906157fe565b905060006135db6109d26402540be4008761582d565b905060008212156135f2576135ef81615844565b90505b60006135fe8285615add565b905088600a60008282546136129190615a25565b9250508190555089600b600082825461362b9190615a25565b92505081905550898760030160008282546136469190615a25565b92505081905550888760040160008282546136619190615a25565b9091555050600387015460000361367f57600a8701805460ff191690555b426009880155600187015460028801546001600160a01b037f00000000000000000000000000000000000000000000000000000000000000001691637d1061ec9160ff166136cc8e615844565b6040516001600160e01b031960e086901b168152600481019390935290151560248301526044820152606401600060405180830381600087803b15801561371257600080fd5b505af1158015613726573d6000803e3d6000fd5b5050505089600860008960010154815260200190815260200160002060008282546137519190615a25565b9091555060009050808213156137725761376b828b615a12565b90506137a4565b600061377e838c615add565b905060008112156137a15760405162461bcd60e51b8152600401610ae590615aa6565b90505b80156137de576137de6001600160a01b037f0000000000000000000000000000000000000000000000000000000000000000163383614cb3565b8b7fc46f71bdaf4f56709b0041d9b4c2e27d4b7386fc2da5b265c69e7fd3c78fc3cf8c8c60008912156138195761381489615844565b61381b565b885b604080519384526020840192909252908201526000606082015260800160405180910390a2505050505050505050612f6e6001600055565b61385b61530a565b6000828152600360205260409020600a81015460ff1661387b5750919050565b600061388a82600101546142ac565b50600183015460038401546002850154600786015460405163132029e760e01b81526004810194909452602484019290925260ff161515604483015260648201529091506000907f00000000000000000000000000000000000000000000000000000000000000006001600160a01b03169063132029e790608401602060405180830381865afa158015613922573d6000803e3d6000fd5b505050506040513d601f19601f8201168201806040525081019061394691906157fe565b9050600061395c6109d26402540be4008561582d565b905060008212156139735761397081615844565b90505b6040805160a0810182526003860154815260048601546020820152600586015481830152600286015460ff161515606082015260808101839052815180830190925290600090806139ce612710670de0b6b3a7640000615876565b60018901546000908152600460205260409020600201546139ef9190615876565b815260200161271081525090506000613a088383614512565b90506000613a1784888561440d565b9050600085613a418a600501548a8c600301548d60020160009054906101000a900460ff16614ce3565b613a4b9190615add565b604080516101c0810182528d81528b546001600160a01b031660208083019190915260018d01549282019290925260028c015460ff161515606082015260038c0154608082015260048c015460a082015260058c015460c082015260068c015460e08201529085015161010082015261012081018490526101408101829052909150610160810160008813613ae1576000613ae3565b875b81526020018a6008015481526020018a600901548152509950505050505050505050919050565b613b5e60405180610120016040528060001515815260200160008152602001600081526020016000815260200160008152602001600081526020016000801916815260200160008152602001600081525090565b50600090815260046020818152604092839020835161012081018552815460ff161515815260018201549281019290925260028101549382019390935260038301546060820152908201546080820152600582015460a0820152600682015460c0820152600782015460e082015260089091015461010082015290565b6000613be56146eb565b336001600160a01b037f00000000000000000000000000000000000000000000000000000000000000001614613c685760405162461bcd60e51b815260206004820152602260248201527f50657270456e67696e653a206f6e6c79204c69717569646174696f6e456e67696044820152616e6560f01b6064820152608401610ae5565b81356000908152600360205260409020600a81015460ff16613c9c5760405162461bcd60e51b8152600401610ae590615898565b613cac60408401602085016156d0565b81546001600160a01b03908116911614613d085760405162461bcd60e51b815260206004820152601b60248201527f50657270456e67696e653a20747261646572206d69736d6174636800000000006044820152606401610ae5565b8260400135816001015414613d5f5760405162461bcd60e51b815260206004820152601b60248201527f50657270456e67696e653a206d61726b6574206d69736d6174636800000000006044820152606401610ae5565b600080613d6f83600101546142ac565b9150915080613d905760405162461bcd60e51b8152600401610ae5906158cf565b6040805160a0810182526003850154815260048501546020820152600585015481830152600285015460ff16151560608201526000608082018190528251808401909352909180613deb612710670de0b6b3a7640000615876565b6001880154600090815260046020526040902060020154613e0c9190615876565b81526020016127108152509050613e2482858361426b565b613e705760405162461bcd60e51b815260206004820152601c60248201527f50657270456e67696e653a206e6f74206c6971756964617461626c65000000006044820152606401610ae5565b5050613e7f83600101546149ac565b6003830154606086013590811115613e98575060038301545b60058401546002850154600091613eb5918690859060ff16614ce3565b9050600080821215613ecd57613eca82615844565b90505b60008660040154821015613eee57818760040154613eeb9190615a25565b90505b6000613f12613f026402540be4008961582d565b8690670de0b6b3a7640000614233565b600189015460009081526004602081905260408220015491925090613f41908390670de0b6b3a7640000614233565b905082811115613f4e5750815b613f59600282615876565b995085600b6000828254613f6d9190615a25565b9091555060009050613f7f8286615a12565b90508960040154811115613f94575060048901545b80600a6000828254613fa69190615a25565b92505081905550868a6003016000828254613fc19190615a25565b92505081905550808a6004016000828254613fdc9190615a25565b909155505060038a015460000361407457600a8a01805460ff19169055604051630852cd8d60e31b81528c3560048201527f00000000000000000000000000000000000000000000000000000000000000006001600160a01b0316906342966c6890602401600060405180830381600087803b15801561405b57600080fd5b505af115801561406f573d6000803e3d6000fd5b505050505b4260098b015560018a015460028b01546001600160a01b037f00000000000000000000000000000000000000000000000000000000000000001691637d1061ec9160ff166140c18b615844565b6040516001600160e01b031960e086901b168152600481019390935290151560248301526044820152606401600060405180830381600087803b15801561410757600080fd5b505af115801561411b573d6000803e3d6000fd5b5050505086600860008c60010154815260200190815260200160002060008282546141469190615a25565b90915550508a156141d9576141856001600160a01b037f000000000000000000000000000000000000000000000000000000000000000016338d614cb3565b6141d96001600160a01b037f0000000000000000000000000000000000000000000000000000000000000000167f00000000000000000000000000000000000000000000000000000000000000008d614cb3565b604080518a8152602081018490529081018c905233908d35907f5564304997c5a4b15399de434a73fbc4339eae8f1b5b2875d0feac2826ce33d29060600160405180910390a35050505050505050505061190b6001600055565b600081600003614256576040516323d359a360e01b815260040160405180910390fd5b614261848484614d8b565b90505b9392505050565b60008061427985858561440d565b905060006142a08460200151612710670de0b6b3a76400006142339092919063ffffffff16565b90911095945050505050565b6000818152600460205260408120805482919060ff166142de5760405162461bcd60e51b8152600401610ae5906159b0565b60068101546040516331d98b3f60e01b8152600481018290527f00000000000000000000000000000000000000000000000000000000000000006001600160a01b0316906331d98b3f90602401602060405180830381865afa158015614348573d6000803e3d6000fd5b505050506040513d601f19601f8201168201806040525081019061436c91906157fe565b93506000841180156144045750604051636ffe055360e11b8152600481018290527f00000000000000000000000000000000000000000000000000000000000000006001600160a01b03169063dffc0aa690602401602060405180830381865afa1580156143de573d6000803e3d6000fd5b505050506040513d601f19601f820116820180604052508101906144029190615b1d565b155b92505050915091565b600061441a848484614e75565b600061443485604001518587600001518860600151614ce3565b9050600061445086602001518388608001518960000151614f41565b90506000811361446557600092505050614264565b600061448461447387614f84565b885190670de0b6b3a7640000614233565b855190915060009061449a908390612710614233565b9050806000036144c2576144b7670de0b6b3a7640000606461582d565b945050505050614264565b6144d583670de0b6b3a764000083614233565b94506144ea670de0b6b3a7640000606461582d565b85111561450757614504670de0b6b3a7640000606461582d565b94505b505050509392505050565b60408051808201909152600080825260208201526145308383614f95565b815160009061454b90670de0b6b3a764000090612710614233565b9050600061455c8560400151614f84565b905084606001511561463c57608085015160208601518651600092919061458c9085670de0b6b3a7640000614233565b6145969190615afd565b6145a09190615add565b9050600081136145c957505060408051808201909152600080825260208201529150610aad9050565b60006145e061447385670de0b6b3a7640000615a25565b90508060000361460a57505060408051808201909152600080825260208201529250610aad915050565b600061461f83670de0b6b3a764000084614233565b60018752905061462e8161503d565b6020870152506146e3915050565b60808501516020860151865160009291906146609085670de0b6b3a7640000614233565b61466a9190615add565b6146749190615afd565b90506000811361469d57505060408051808201909152600080825260208201529150610aad9050565b60006146b461447385670de0b6b3a7640000615a12565b905060006146cb83670de0b6b3a764000084614233565b6001875290506146da8161503d565b60208701525050505b505092915050565b60026000540361473d5760405162461bcd60e51b815260206004820152601f60248201527f5265656e7472616e637947756172643a207265656e7472616e742063616c6c006044820152606401610ae5565b6002600055565b60015460ff161561478a5760405162461bcd60e51b815260206004820152601060248201526f14185d5cd8589b194e881c185d5cd95960821b6044820152606401610ae5565b565b600084815260046020526040902060018101548211156147fe5760405162461bcd60e51b815260206004820152602760248201527f50657270456e67696e653a206c657665726167652065786365656473206d61726044820152660d6cae840dac2f60cb1b6064820152608401610ae5565b6002810154614817908590670de0b6b3a7640000614233565b8310156148665760405162461bcd60e51b815260206004820152601a60248201527f50657270456e67696e653a206d617267696e20746f6f206c6f770000000000006044820152606401610ae5565b6040516354486db760e11b81526004810186905260248101859052604481018490526064810183905260009081906001600160a01b037f0000000000000000000000000000000000000000000000000000000000000000169063a890db6e90608401600060405180830381865afa1580156148e5573d6000803e3d6000fd5b505050506040513d6000823e601f3d908101601f1916820160405261490d9190810190615b5e565b915091508181906149315760405162461bcd60e51b8152600401610ae59190615c21565b5050505050505050565b6040516001600160a01b03808516602483015283166044820152606481018290526149a69085906323b872dd60e01b906084015b60408051601f198184030181529190526020810180516001600160e01b03166001600160e01b03199093169290921790915261504e565b50505050565b60405163894feb9d60e01b8152600481018290526000907f00000000000000000000000000000000000000000000000000000000000000006001600160a01b03169063894feb9d906024016020604051808303816000875af1158015614a16573d6000803e3d6000fd5b505050506040513d601f19601f82011682018060405250810190614a3a91906157fe565b90508015611dd5576000828152600660209081526040918290208381554260018201819055600282015460039092015484518681529384019190915292820152606081019190915282907f38199a8dc09350a8a3c6518a49733760559187354e82f4b5b2d330182f63b2649060800160405180910390a25050565b600083815260036020908152604080832060018101548452600492839052818420600681015492516331d98b3f60e01b8152938401929092529183907f00000000000000000000000000000000000000000000000000000000000000006001600160a01b0316906331d98b3f90602401602060405180830381865afa158015614b42573d6000803e3d6000fd5b505050506040513d601f19601f82011682018060405250810190614b6691906157fe565b90506000614b8c614b7c6402540be4008461582d565b8890670de0b6b3a7640000614233565b6005840154909150614ba8908290670de0b6b3a7640000614233565b94508415614507576001600160a01b037f00000000000000000000000000000000000000000000000000000000000000001660009081526007602052604081208054879290614bf8908490615a12565b9250508190555084600e6000828254614c119190615a12565b90915550506004840154851115614c765760405162461bcd60e51b815260206004820152602360248201527f50657270456e67696e653a206d617267696e20746f6f206c6f7720666f72206660448201526265657360e81b6064820152608401610ae5565b84846004016000828254614c8a9190615a25565b9250508190555084600a6000828254614ca39190615a25565b9091555050505050509392505050565b6040516001600160a01b038316602482015260448101829052612f6e90849063a9059cbb60e01b9060640161496f565b6000614cf0858585615123565b6000614cfb86614f84565b90506000614d0886614f84565b905083614d1f57614d1a828287615189565b614d2a565b614d2a8282876151c4565b979650505050505050565b600080614d428487615a12565b90506000614d598585670de0b6b3a7640000614233565b614d6c8888670de0b6b3a7640000614233565b614d769190615a12565b9050614d2a81670de0b6b3a764000084614233565b6000808060001985870985870292508281108382030391505080600003614dc557838281614dbb57614dbb615860565b0492505050614264565b808411614e0c5760405162461bcd60e51b81526020600482015260156024820152744d6174683a206d756c446976206f766572666c6f7760581b6044820152606401610ae5565b60008486880960026001871981018816978890046003810283188082028403028082028403028082028403028082028403028082028403029081029092039091026000889003889004909101858311909403939093029303949094049190911702949350505050565b8260400151600003614e9a57604051639258fb0760e01b815260040160405180910390fd5b8251600003614ebc5760405163c459d23f60e01b815260040160405180910390fd5b81600003614ee0576040516399a494e360e01b815260048101839052602401610ae5565b80511580614ef057508051612710105b80614efd57506020810151155b80614f0d57506127108160200151115b80614f1d57506020810151815110155b15612f6e5780516040516356de700b60e11b81526004810191909152602401610ae5565b60008282811315614f53575081614f6f565b614f5c83615844565b841215614f6f57614f6c83615844565b90505b80614f7a8688615add565b6131c29190615afd565b6000610aad6402540be4008361582d565b8160400151600003614fba57604051639258fb0760e01b815260040160405180910390fd5b8151600003614fdc5760405163c459d23f60e01b815260040160405180910390fd5b80511580614fec57508051612710105b80614ff957506020810151155b8061500957506127108160200151115b8061501957506020810151815110155b15611dd55780516040516356de700b60e11b81526004810191909152602401610ae5565b6000610aad6402540be40083615876565b60006150a3826040518060400160405280602081526020017f5361666545524332303a206c6f772d6c6576656c2063616c6c206661696c6564815250856001600160a01b03166151f79092919063ffffffff16565b90508051600014806150c45750808060200190518101906150c49190615b1d565b612f6e5760405162461bcd60e51b815260206004820152602a60248201527f5361666545524332303a204552433230206f7065726174696f6e20646964206e6044820152691bdd081cdd58d8d9595960b21b6064820152608401610ae5565b8260000361514457604051639258fb0760e01b815260040160405180910390fd5b806000036151655760405163c459d23f60e01b815260040160405180910390fd5b81600003612f6e576040516399a494e360e01b815260048101839052602401610ae5565b60008383106151af576151a784840383670de0b6b3a7640000614233565b600003614261565b61426183850383670de0b6b3a7640000614233565b60008383116151e2576151a783850383670de0b6b3a7640000614233565b61426184840383670de0b6b3a7640000614233565b6060614261848460008585600080866001600160a01b0316858760405161521e9190615c54565b60006040518083038185875af1925050503d806000811461525b576040519150601f19603f3d011682016040523d82523d6000602084013e615260565b606091505b5091509150614d2a87838387606083156152db5782516000036152d4576001600160a01b0385163b6152d45760405162461bcd60e51b815260206004820152601d60248201527f416464726573733a2063616c6c20746f206e6f6e2d636f6e74726163740000006044820152606401610ae5565b5081610fdb565b610fdb83838151156152f05781518083602001fd5b8060405162461bcd60e51b8152600401610ae59190615c21565b604051806101c001604052806000815260200160006001600160a01b0316815260200160008152602001600015158152602001600081526020016000815260200160008152602001600081526020016000815260200160008152602001600081526020016000815260200160008152602001600081525090565b6000806040838503121561539757600080fd5b50508035926020909101359150565b6000602082840312156153b857600080fd5b5035919050565b60008083601f8401126153d157600080fd5b50813567ffffffffffffffff8111156153e957600080fd5b6020830191508360208260051b850101111561540457600080fd5b9250929050565b6000806000806040858703121561542157600080fd5b843567ffffffffffffffff8082111561543957600080fd5b615445888389016153bf565b9096509450602087013591508082111561545e57600080fd5b5061546b878288016153bf565b95989497509550505050565b6020808252825182820181905260009190848201906040850190845b818110156154b1578351151583529284019291840191600101615493565b50909695505050505050565b600080600080600080600060e0888a0312156154d857600080fd5b505085359760208701359750604087013596606081013596506080810135955060a0810135945060c0013592509050565b600060e0828403121561551b57600080fd5b50919050565b80356001600160a01b038116811461190b57600080fd5b60008060006060848603121561554d57600080fd5b61555684615521565b95602085013595506040909401359392505050565b80518252602081015161558960208401826001600160a01b03169052565b506040810151604083015260608101516155a7606084018215159052565b506080818101519083015260a0808201519083015260c0808201519083015260e08082015190830152610100808201519083015261012080820151908301526101408082015190830152610160808201519083015261018080820151908301526101a090810151910152565b600081518084526020808501945080840160005b8381101561564e5761563a87835161556b565b6101c0969096019590820190600101615627565b509495945050505050565b60408152600061566c6040830185615613565b90508260208301529392505050565b6000806020838503121561568e57600080fd5b823567ffffffffffffffff8111156156a557600080fd5b6156b1858286016153bf565b90969095509350505050565b6020815260006142646020830184615613565b6000602082840312156156e257600080fd5b61426482615521565b6020808252825182820181905260009190848201906040850190845b818110156154b157835183529284019291840191600101615707565b60008060006060848603121561573857600080fd5b505081359360208301359350604090920135919050565b81516001600160a01b03168152610160810160208301516020830152604083015161577e604084018215159052565b50606083015160608301526080830151608083015260a083015160a083015260c083015160c083015260e083015160e0830152610100808401518184015250610120808401518184015250610140808401516146e38285018215159052565b6101c08101610aad828461556b565b600060a0828403121561551b57600080fd5b60006020828403121561581057600080fd5b5051919050565b634e487b7160e01b600052601160045260246000fd5b8082028115828204841417610aad57610aad615817565b6000600160ff1b820161585957615859615817565b5060000390565b634e487b7160e01b600052601260045260246000fd5b60008261589357634e487b7160e01b600052601260045260246000fd5b500490565b6020808252601d908201527f50657270456e67696e653a20706f736974696f6e20696e616374697665000000604082015260600190565b60208082526019908201527f50657270456e67696e653a20696e76616c696420707269636500000000000000604082015260600190565b60008060006060848603121561591b57600080fd5b8351925060208401519150604084015190509250925092565b634e487b7160e01b600052604160045260246000fd5b634e487b7160e01b600052603260045260246000fd5b60006001820161597257615972615817565b5060010190565b6020808252601b908201527f50657270456e67696e653a206f6e6c7920476f7665726e616e63650000000000604082015260600190565b6020808252601b908201527f50657270456e67696e653a206d61726b657420696e6163746976650000000000604082015260600190565b801515811461299257600080fd5b600060208284031215615a0757600080fd5b8135614264816159e7565b80820180821115610aad57610aad615817565b81810381811115610aad57610aad615817565b6020808252601c908201527f50657270456e67696e653a20696e76616c696420706f736974696f6e00000000604082015260600190565b6020808252601e908201527f50657270456e67696e653a206e6f7420706f736974696f6e206f776e65720000604082015260600190565b6020808252601f908201527f50657270456e67696e653a20696e73756666696369656e74206d617267696e00604082015260600190565b80820182811260008312801582168215821617156146e3576146e3615817565b8181036000831280158383131683831282161715611e8c57611e8c615817565b600060208284031215615b2f57600080fd5b8151614264816159e7565b60005b83811015615b55578181015183820152602001615b3d565b50506000910152565b60008060408385031215615b7157600080fd5b8251615b7c816159e7565b602084015190925067ffffffffffffffff80821115615b9a57600080fd5b818501915085601f830112615bae57600080fd5b815181811115615bc057615bc0615934565b604051601f8201601f19908116603f01168101908382118183101715615be857615be8615934565b81604052828152886020848701011115615c0157600080fd5b615c12836020830160208801615b3a565b80955050505050509250929050565b6020815260008251806020840152615c40816040850160208701615b3a565b601f01601f19169190910160400192915050565b60008251615c66818460208701615b3a565b919091019291505056fea264697066735822122035849f408dd1c4a2a35a8671a883b980ca2619eb454e8275d1aa08d74ba0442064736f6c6343000813003350657270456e67696e653a207a65726f20616464726573730000000000000000","linkReferences":{}},"methodIdentifiers":{"accrueFunding(uint256)":"a572c3e8","addMargin(uint256,uint256)":"d41194b8","ammPool()":"1899b506","baseToken()":"c55dae63","batchAccrueFunding(uint256[])":"b0e8f41b","batchGetHealthFactors(uint256[])":"7de4c202","batchGetPositions(uint256[])":"53e06778","batchIsLiquidatable(uint256[],uint256[])":"2dd45bdb","closePosition(uint256)":"a126d601","configRegistry()":"244bb309","decreasePosition(uint256,uint256,uint256)":"da36992a","getAvailableMargin(uint256)":"80691f3c","getFundingState(uint256)":"b4acb042","getHealthFactor(uint256)":"17845c69","getLiquidationPrice(uint256)":"2c854f23","getMarket(uint256)":"eb44fdd3","getMarketStats(uint256)":"58057fe5","getMaxAdditionalSize(uint256,uint256)":"6fee4f10","getPosition(uint256)":"eb02c301","getPositionInternal(uint256)":"d19f42d2","getPositionStats()":"6cfcf653","getPositionsByMarket(uint256,uint256,uint256)":"83afd17d","getPositionsByTrader(address,uint256,uint256)":"48bf9a38","getProtocolFees(address)":"f27dd8ab","getTotalOpenInterest(uint256)":"52c9b0ed","getTraderPositions(address)":"5fbbb2ff","getUnrealizedPnl(uint256,uint256)":"d2080311","governance()":"5aa6e675","increasePosition(uint256,uint256,uint256)":"b8d1e890","initializeMarket(uint256,bytes32,uint256,uint256,uint256,uint256,uint256)":"2f78fbf3","insuranceFund()":"b7902303","isPositionLiquidatable(uint256,uint256)":"0c5c123b","liquidatePosition((uint256,address,uint256,uint256,uint256))":"f0d13a48","liquidationEngine()":"44bf3c72","openPosition((uint256,bool,uint256,uint256,uint256,uint256,bytes32))":"36c3c240","oracleAggregator()":"8dffe3f4","paused()":"5c975abb","positionManager()":"791b98bc","previewLiquidation(uint256,uint256)":"29674444","quoteToken()":"217a4b70","removeMargin(uint256,uint256)":"4b8f4381","riskManager()":"47842663","setGovernance(address)":"ab033ea9","totalCollateral()":"4ac8eb5f","totalFeesAccrued()":"73f38ee0","totalFundingPaid()":"b7be414c","totalFundingReceived()":"fba849b7","totalPositionValue()":"43146082","updateFundingParams(uint256,uint256)":"5a492294","updateLiquidationPenalty(uint256)":"57917a11","updateProtocolFee(uint256)":"4256dd78"},"id":3}