{"abi":[{"type":"constructor","inputs":[{"name":"configRegistry_","type":"address","internalType":"address"}],"stateMutability":"nonpayable"},{"type":"function","name":"addMarket","inputs":[{"name":"symbol","type":"string","internalType":"string"},{"name":"oracleFeedId","type":"bytes32","internalType":"bytes32"},{"name":"baseToken","type":"address","internalType":"address"},{"name":"quoteToken","type":"address","internalType":"address"},{"name":"maxLeverage","type":"uint256","internalType":"uint256"},{"name":"minMarginRatio","type":"uint256","internalType":"uint256"},{"name":"liquidationFeeRatio","type":"uint256","internalType":"uint256"},{"name":"protocolFeeRatio","type":"uint256","internalType":"uint256"},{"name":"maxPositionSize","type":"uint256","internalType":"uint256"},{"name":"maxOpenInterest","type":"uint256","internalType":"uint256"}],"outputs":[{"name":"marketId","type":"uint256","internalType":"uint256"}],"stateMutability":"nonpayable"},{"type":"function","name":"configRegistry","inputs":[],"outputs":[{"name":"","type":"address","internalType":"address"}],"stateMutability":"view"},{"type":"function","name":"emergencyPause","inputs":[],"outputs":[],"stateMutability":"nonpayable"},{"type":"function","name":"emergencyResume","inputs":[],"outputs":[],"stateMutability":"nonpayable"},{"type":"function","name":"getActiveMarkets","inputs":[],"outputs":[{"name":"","type":"uint256[]","internalType":"uint256[]"}],"stateMutability":"view"},{"type":"function","name":"getAllMarkets","inputs":[],"outputs":[{"name":"","type":"uint256[]","internalType":"uint256[]"}],"stateMutability":"view"},{"type":"function","name":"getMarket","inputs":[{"name":"marketId","type":"uint256","internalType":"uint256"}],"outputs":[{"name":"","type":"tuple","internalType":"struct IMarketRegistry.Market","components":[{"name":"isActive","type":"bool","internalType":"bool"},{"name":"symbol","type":"string","internalType":"string"},{"name":"oracleFeedId","type":"bytes32","internalType":"bytes32"},{"name":"baseToken","type":"address","internalType":"address"},{"name":"quoteToken","type":"address","internalType":"address"},{"name":"maxLeverage","type":"uint256","internalType":"uint256"},{"name":"minMarginRatio","type":"uint256","internalType":"uint256"},{"name":"liquidationFeeRatio","type":"uint256","internalType":"uint256"},{"name":"protocolFeeRatio","type":"uint256","internalType":"uint256"},{"name":"maxPositionSize","type":"uint256","internalType":"uint256"},{"name":"maxOpenInterest","type":"uint256","internalType":"uint256"},{"name":"createdAt","type":"uint256","internalType":"uint256"},{"name":"updatedAt","type":"uint256","internalType":"uint256"},{"name":"version","type":"uint256","internalType":"uint256"}]}],"stateMutability":"view"},{"type":"function","name":"getMarketBySymbol","inputs":[{"name":"symbol","type":"string","internalType":"string"}],"outputs":[{"name":"marketId","type":"uint256","internalType":"uint256"},{"name":"market","type":"tuple","internalType":"struct IMarketRegistry.Market","components":[{"name":"isActive","type":"bool","internalType":"bool"},{"name":"symbol","type":"string","internalType":"string"},{"name":"oracleFeedId","type":"bytes32","internalType":"bytes32"},{"name":"baseToken","type":"address","internalType":"address"},{"name":"quoteToken","type":"address","internalType":"address"},{"name":"maxLeverage","type":"uint256","internalType":"uint256"},{"name":"minMarginRatio","type":"uint256","internalType":"uint256"},{"name":"liquidationFeeRatio","type":"uint256","internalType":"uint256"},{"name":"protocolFeeRatio","type":"uint256","internalType":"uint256"},{"name":"maxPositionSize","type":"uint256","internalType":"uint256"},{"name":"maxOpenInterest","type":"uint256","internalType":"uint256"},{"name":"createdAt","type":"uint256","internalType":"uint256"},{"name":"updatedAt","type":"uint256","internalType":"uint256"},{"name":"version","type":"uint256","internalType":"uint256"}]}],"stateMutability":"view"},{"type":"function","name":"getMarketCount","inputs":[],"outputs":[{"name":"total","type":"uint256","internalType":"uint256"},{"name":"active","type":"uint256","internalType":"uint256"}],"stateMutability":"view"},{"type":"function","name":"getMarketHistory","inputs":[{"name":"marketId","type":"uint256","internalType":"uint256"},{"name":"limit","type":"uint256","internalType":"uint256"}],"outputs":[{"name":"history","type":"tuple[]","internalType":"struct IMarketRegistry.MarketUpdate[]","components":[{"name":"marketId","type":"uint256","internalType":"uint256"},{"name":"oldConfig","type":"tuple","internalType":"struct IMarketRegistry.Market","components":[{"name":"isActive","type":"bool","internalType":"bool"},{"name":"symbol","type":"string","internalType":"string"},{"name":"oracleFeedId","type":"bytes32","internalType":"bytes32"},{"name":"baseToken","type":"address","internalType":"address"},{"name":"quoteToken","type":"address","internalType":"address"},{"name":"maxLeverage","type":"uint256","internalType":"uint256"},{"name":"minMarginRatio","type":"uint256","internalType":"uint256"},{"name":"liquidationFeeRatio","type":"uint256","internalType":"uint256"},{"name":"protocolFeeRatio","type":"uint256","internalType":"uint256"},{"name":"maxPositionSize","type":"uint256","internalType":"uint256"},{"name":"maxOpenInterest","type":"uint256","internalType":"uint256"},{"name":"createdAt","type":"uint256","internalType":"uint256"},{"name":"updatedAt","type":"uint256","internalType":"uint256"},{"name":"version","type":"uint256","internalType":"uint256"}]},{"name":"newConfig","type":"tuple","internalType":"struct IMarketRegistry.Market","components":[{"name":"isActive","type":"bool","internalType":"bool"},{"name":"symbol","type":"string","internalType":"string"},{"name":"oracleFeedId","type":"bytes32","internalType":"bytes32"},{"name":"baseToken","type":"address","internalType":"address"},{"name":"quoteToken","type":"address","internalType":"address"},{"name":"maxLeverage","type":"uint256","internalType":"uint256"},{"name":"minMarginRatio","type":"uint256","internalType":"uint256"},{"name":"liquidationFeeRatio","type":"uint256","internalType":"uint256"},{"name":"protocolFeeRatio","type":"uint256","internalType":"uint256"},{"name":"maxPositionSize","type":"uint256","internalType":"uint256"},{"name":"maxOpenInterest","type":"uint256","internalType":"uint256"},{"name":"createdAt","type":"uint256","internalType":"uint256"},{"name":"updatedAt","type":"uint256","internalType":"uint256"},{"name":"version","type":"uint256","internalType":"uint256"}]},{"name":"timestamp","type":"uint256","internalType":"uint256"},{"name":"updatedBy","type":"address","internalType":"address"}]}],"stateMutability":"view"},{"type":"function","name":"getMarketIdBySymbol","inputs":[{"name":"symbol","type":"string","internalType":"string"}],"outputs":[{"name":"","type":"uint256","internalType":"uint256"}],"stateMutability":"view"},{"type":"function","name":"getMarketStatus","inputs":[{"name":"marketId","type":"uint256","internalType":"uint256"}],"outputs":[{"name":"isActive","type":"bool","internalType":"bool"},{"name":"version","type":"uint256","internalType":"uint256"}],"stateMutability":"view"},{"type":"function","name":"isMarketActive","inputs":[{"name":"marketId","type":"uint256","internalType":"uint256"}],"outputs":[{"name":"","type":"bool","internalType":"bool"}],"stateMutability":"view"},{"type":"function","name":"owner","inputs":[],"outputs":[{"name":"","type":"address","internalType":"address"}],"stateMutability":"view"},{"type":"function","name":"paused","inputs":[],"outputs":[{"name":"","type":"bool","internalType":"bool"}],"stateMutability":"view"},{"type":"function","name":"renounceOwnership","inputs":[],"outputs":[],"stateMutability":"nonpayable"},{"type":"function","name":"setConfigRegistry","inputs":[{"name":"newConfigRegistry","type":"address","internalType":"address"}],"outputs":[],"stateMutability":"nonpayable"},{"type":"function","name":"setMarketStatus","inputs":[{"name":"marketId","type":"uint256","internalType":"uint256"},{"name":"isActive","type":"bool","internalType":"bool"}],"outputs":[],"stateMutability":"nonpayable"},{"type":"function","name":"symbolExists","inputs":[{"name":"symbol","type":"string","internalType":"string"}],"outputs":[{"name":"","type":"bool","internalType":"bool"}],"stateMutability":"view"},{"type":"function","name":"transferOwnership","inputs":[{"name":"newOwner","type":"address","internalType":"address"}],"outputs":[],"stateMutability":"nonpayable"},{"type":"function","name":"updateMarket","inputs":[{"name":"marketId","type":"uint256","internalType":"uint256"},{"name":"maxLeverage","type":"uint256","internalType":"uint256"},{"name":"minMarginRatio","type":"uint256","internalType":"uint256"},{"name":"liquidationFeeRatio","type":"uint256","internalType":"uint256"},{"name":"protocolFeeRatio","type":"uint256","internalType":"uint256"},{"name":"maxPositionSize","type":"uint256","internalType":"uint256"},{"name":"maxOpenInterest","type":"uint256","internalType":"uint256"}],"outputs":[],"stateMutability":"nonpayable"},{"type":"function","name":"updateOracleFeed","inputs":[{"name":"marketId","type":"uint256","internalType":"uint256"},{"name":"newFeedId","type":"bytes32","internalType":"bytes32"}],"outputs":[],"stateMutability":"nonpayable"},{"type":"function","name":"validateMarket","inputs":[{"name":"marketId","type":"uint256","internalType":"uint256"},{"name":"positionSize","type":"uint256","internalType":"uint256"}],"outputs":[{"name":"valid","type":"bool","internalType":"bool"},{"name":"reason","type":"string","internalType":"string"}],"stateMutability":"view"},{"type":"event","name":"MarketAdded","inputs":[{"name":"marketId","type":"uint256","indexed":true,"internalType":"uint256"},{"name":"symbol","type":"string","indexed":false,"internalType":"string"},{"name":"oracleFeedId","type":"bytes32","indexed":false,"internalType":"bytes32"},{"name":"baseToken","type":"address","indexed":false,"internalType":"address"},{"name":"quoteToken","type":"address","indexed":false,"internalType":"address"},{"name":"maxLeverage","type":"uint256","indexed":false,"internalType":"uint256"},{"name":"maxPositionSize","type":"uint256","indexed":false,"internalType":"uint256"}],"anonymous":false},{"type":"event","name":"MarketStatusChanged","inputs":[{"name":"marketId","type":"uint256","indexed":true,"internalType":"uint256"},{"name":"newStatus","type":"bool","indexed":false,"internalType":"bool"},{"name":"changedBy","type":"address","indexed":false,"internalType":"address"}],"anonymous":false},{"type":"event","name":"MarketUpdated","inputs":[{"name":"marketId","type":"uint256","indexed":true,"internalType":"uint256"},{"name":"version","type":"uint256","indexed":false,"internalType":"uint256"},{"name":"updatedBy","type":"address","indexed":false,"internalType":"address"}],"anonymous":false},{"type":"event","name":"OracleFeedUpdated","inputs":[{"name":"marketId","type":"uint256","indexed":true,"internalType":"uint256"},{"name":"oldFeedId","type":"bytes32","indexed":false,"internalType":"bytes32"},{"name":"newFeedId","type":"bytes32","indexed":false,"internalType":"bytes32"}],"anonymous":false},{"type":"event","name":"OwnershipTransferred","inputs":[{"name":"previousOwner","type":"address","indexed":true,"internalType":"address"},{"name":"newOwner","type":"address","indexed":true,"internalType":"address"}],"anonymous":false},{"type":"event","name":"Paused","inputs":[{"name":"account","type":"address","indexed":false,"internalType":"address"}],"anonymous":false},{"type":"event","name":"Unpaused","inputs":[{"name":"account","type":"address","indexed":false,"internalType":"address"}],"anonymous":false}],"bytecode":{"object":"0x608060405260016005553480156200001657600080fd5b5060405162002f0638038062002f06833981016040819052620000399162000122565b6200004433620000d2565b6000805460ff60a01b191690556001600160a01b038116620000ac5760405162461bcd60e51b815260206004820152601c60248201527f4d61726b657452656769737472793a207a65726f206164647265737300000000604482015260640160405180910390fd5b600680546001600160a01b0319166001600160a01b039290921691909117905562000154565b600080546001600160a01b038381166001600160a01b0319831681178455604051919092169283917f8be0079c531659141344cd1fd0a4f28419497f9722a3daafe3b4186f6b6457e09190a35050565b6000602082840312156200013557600080fd5b81516001600160a01b03811681146200014d57600080fd5b9392505050565b612da280620001646000396000f3fe608060405234801561001057600080fd5b506004361061014d5760003560e01c80638da5cb5b116100c3578063e63d332f1161007c578063e63d332f146102ca578063eb44fdd3146102dd578063ec5a711a146102fd578063f2fde38b14610327578063f849f69e1461033a578063fd69f3c21461034d57600080fd5b80638da5cb5b1461026157806393c87f0314610272578063a5e973c31461027a578063b0772d0b1461028f578063b1b4edeb14610297578063c1efcca4146102b757600080fd5b806351858e271161011557806351858e27146101f8578063597c131d146102025780635c975abb14610215578063615fc1bb14610233578063715018a6146102465780638c659fb81461024e57600080fd5b80630d11ff8614610152578063244bb309146101785780632bc9909a146101a35780632f54f852146101c4578063343f06df146101e5575b600080fd5b61016561016036600461263d565b61036a565b6040519081526020015b60405180910390f35b60065461018b906001600160a01b031681565b6040516001600160a01b03909116815260200161016f565b6101b66101b13660046126e2565b610bb8565b60405161016f92919061274a565b6101d76101d236600461276d565b610c98565b60405161016f92919061287c565b6101656101f336600461276d565b610e63565b610200610e8f565b005b6102006102103660046126e2565b610f52565b600054600160a01b900460ff165b604051901515815260200161016f565b610200610241366004612895565b6110eb565b610200611241565b61022361025c36600461276d565b611255565b6000546001600160a01b031661018b565b610200611282565b610282611341565b60405161016f91906128ca565b610282611486565b6102aa6102a53660046126e2565b6114de565b60405161016f919061290e565b6102006102c53660046129bc565b611902565b6102006102d83660046129de565b611982565b6102f06102eb366004612a2a565b611fb1565b60405161016f9190612a43565b61031061030b366004612a2a565b612161565b60408051921515835260208301919091520161016f565b6102006103353660046129bc565b6121e1565b610223610348366004612a2a565b612257565b6103556122cc565b6040805192835260208301919091520161016f565b600080546001600160a01b031633148061038e57506006546001600160a01b031633145b6103b35760405162461bcd60e51b81526004016103aa90612a56565b60405180910390fd5b6103bb61233b565b8a6104085760405162461bcd60e51b815260206004820152601c60248201527f4d61726b657452656769737472793a20656d7074792073796d626f6c0000000060448201526064016103aa565b896104615760405162461bcd60e51b815260206004820152602360248201527f4d61726b657452656769737472793a20696e76616c6964206f7261636c65206660448201526219595960ea1b60648201526084016103aa565b6001600160a01b0389166104b75760405162461bcd60e51b815260206004820152601f60248201527f4d61726b657452656769737472793a207a65726f206261736520746f6b656e0060448201526064016103aa565b6001600160a01b03881661050d5760405162461bcd60e51b815260206004820181905260248201527f4d61726b657452656769737472793a207a65726f2071756f746520746f6b656e60448201526064016103aa565b876001600160a01b0316896001600160a01b03160361056e5760405162461bcd60e51b815260206004820152601b60248201527f4d61726b657452656769737472793a2073616d6520746f6b656e73000000000060448201526064016103aa565b60038c8c604051610580929190612a8d565b9081526020016040518091039020546000146105de5760405162461bcd60e51b815260206004820152601d60248201527f4d61726b657452656769737472793a2073796d626f6c2065786973747300000060448201526064016103aa565b6000871161062e5760405162461bcd60e51b815260206004820152601d60248201527f4d61726b657452656769737472793a207a65726f206c6576657261676500000060448201526064016103aa565b600083116106885760405162461bcd60e51b815260206004820152602160248201527f4d61726b657452656769737472793a207a65726f206d617820706f736974696f6044820152603760f91b60648201526084016103aa565b6005805490600061069883612ab3565b9190505590506000604051806101c001604052806001151581526020018e8e8080601f016020809104026020016040519081016040528093929190818152602001838380828437600092018290525093855250505060208083018f90526001600160a01b038e8116604080860191909152908e166060850152608084018d905260a084018c905260c084018b905260e084018a90526101008401899052610120840188905242610140850181905261016085015260016101809094018490528683528382529091208351815460ff191690151517815590830151929350839290918201906107869082612b65565b506040820151816002015560608201518160030160006101000a8154816001600160a01b0302191690836001600160a01b0316021790555060808201518160040160006101000a8154816001600160a01b0302191690836001600160a01b0316021790555060a0820151816005015560c0820151816006015560e082015181600701556101008201518160080155610120820151816009015561014082015181600a015561016082015181600b015561018082015181600c01556101a082015181600d01559050508160038e8e604051610861929190612a8d565b9081526040805160209281900383018120939093556004805460018082019092557f8a35acfbc15ff81a39ae7d344fd709f28e8600b4aa8c65c6b64bfe7fe36bd19b018690556000868152600280855283822060a0808801865289885285516101c08101875284815286518089018852858152818901528087018590526060808201869052608080830187905292820186905260c0820186905260e08201869052610100820186905261012082018690526101408201869052610160820186905261018082018690526101a08201869052888a019182529689018a90524296890196909652339088015280548085018255908352918590208651601f9093020191825592518051928201805460ff19169315159390931783559384015190939284019061098e9082612b65565b50604082810151600283015560608301516003830180546001600160a01b039283166001600160a01b031991821617909155608085015160048501805491909316911617905560a0830151600583015560c0830151600683015560e0830151600783015561010083015160088301556101208301516009830155610140830151600a830155610160830151600b830155610180830151600c8301556101a090920151600d909101558201518051600f8301805491151560ff1990921691909117815560208201516010840190610a649082612b65565b506040820151816002015560608201518160030160006101000a8154816001600160a01b0302191690836001600160a01b0316021790555060808201518160040160006101000a8154816001600160a01b0302191690836001600160a01b0316021790555060a0820151816005015560c0820151816006015560e082015181600701556101008201518160080155610120820151816009015561014082015181600a015561016082015181600b015561018082015181600c01556101a082015181600d01555050606082015181601d0155608082015181601e0160006101000a8154816001600160a01b0302191690836001600160a01b031602179055505050817fde1f36cfe73c4b6f2bf5f3397145a4ec62c262d23416a58f65b0505f1151f9de8e8e8e8e8e8e8b604051610ba09796959493929190612c25565b60405180910390a2509b9a5050505050505050505050565b60006060831580610bcb57506005548410155b15610bf4576000604051806060016040528060218152602001612d4c6021913991509150610c91565b6000848152600160205260409020805460ff16610c4a57505060408051808201909152601f81527f4d61726b657452656769737472793a206d61726b657420696e61637469766500602082015260009150610c91565b8060090154841115610c7b576000604051806060016040528060298152602001612d23602991399250925050610c91565b5050604080516020810190915260008152600191505b9250929050565b6000610ca261251e565b60038484604051610cb4929190612a8d565b908152602001604051809103902054915060008211610d155760405162461bcd60e51b815260206004820181905260248201527f4d61726b657452656769737472793a2073796d626f6c206e6f7420666f756e6460448201526064016103aa565b60008281526001602081815260409283902083516101c08101909452805460ff1615158452918201805491840191610d4c90612ae2565b80601f0160208091040260200160405190810160405280929190818152602001828054610d7890612ae2565b8015610dc55780601f10610d9a57610100808354040283529160200191610dc5565b820191906000526020600020905b815481529060010190602001808311610da857829003601f168201915b50505091835250506002820154602082015260038201546001600160a01b039081166040830152600483015416606082015260058201546080820152600682015460a0820152600782015460c0820152600882015460e08201526009820154610100820152600a820154610120820152600b820154610140820152600c820154610160820152600d9091015461018090910152919491935090915050565b600060038383604051610e77929190612a8d565b90815260200160405180910390205490505b92915050565b610e97612388565b610e9f6123e2565b60005b600454811015610f4f57600060048281548110610ec157610ec1612c83565b6000918252602080832090910154808352600190915260409091205490915060ff1615610f3c576000818152600160209081526040808320805460ff191690558051928352339183019190915282917f1368b79eb660b18faff7afabc2278233661c3d1a6d69d470399f5b805aa2baa3910160405180910390a25b5080610f4781612ab3565b915050610ea2565b50565b6000546001600160a01b0316331480610f7557506006546001600160a01b031633145b610f915760405162461bcd60e51b81526004016103aa90612a56565b81600081118015610fa3575060055481105b610fbf5760405162461bcd60e51b81526004016103aa90612c99565b6000818152600160205260409020600b0154610fed5760405162461bcd60e51b81526004016103aa90612cda565b8161103a5760405162461bcd60e51b815260206004820152601c60248201527f4d61726b657452656769737472793a20696e76616c696420666565640000000060448201526064016103aa565b6000838152600160205260409020600281015483810361109c5760405162461bcd60e51b815260206004820152601960248201527f4d61726b657452656769737472793a2073616d6520666565640000000000000060448201526064016103aa565b6002820184905542600c830155604080518281526020810186905286917f98e277967e12f9e6d8d8d6e0d54745e536d08bd60a7e6ed4d0609563634814a4910160405180910390a25050505050565b6000546001600160a01b031633148061110e57506006546001600160a01b031633145b61112a5760405162461bcd60e51b81526004016103aa90612a56565b8160008111801561113c575060055481105b6111585760405162461bcd60e51b81526004016103aa90612c99565b6000818152600160205260409020600b01546111865760405162461bcd60e51b81526004016103aa90612cda565b6000838152600160205260409020805483151560ff9091161515036111ed5760405162461bcd60e51b815260206004820152601b60248201527f4d61726b657452656769737472793a2073616d6520737461747573000000000060448201526064016103aa565b805460ff1916831515908117825542600c8301556040805191825233602083015285917f1368b79eb660b18faff7afabc2278233661c3d1a6d69d470399f5b805aa2baa3910160405180910390a250505050565b611249612388565b6112536000612442565b565b6000806003848460405161126a929190612a8d565b90815260200160405180910390205411905092915050565b61128a612388565b611292612492565b60005b600454811015610f4f576000600482815481106112b4576112b4612c83565b6000918252602080832090910154808352600190915260409091205490915060ff1661132e57600081815260016020818152604092839020805460ff1916831790558251918252339082015282917f1368b79eb660b18faff7afabc2278233661c3d1a6d69d470399f5b805aa2baa3910160405180910390a25b508061133981612ab3565b915050611295565b60606000805b6004548110156113ac57600160006004838154811061136857611368612c83565b6000918252602080832090910154835282019290925260400190205460ff161561139a578161139681612ab3565b9250505b806113a481612ab3565b915050611347565b5060008167ffffffffffffffff8111156113c8576113c8612acc565b6040519080825280602002602001820160405280156113f1578160200160208202803683370190505b5090506000805b60045481101561147d5760006004828154811061141757611417612c83565b6000918252602080832090910154808352600190915260409091205490915060ff161561146a578084848151811061145157611451612c83565b60209081029190910101528261146681612ab3565b9350505b508061147581612ab3565b9150506113f8565b50909392505050565b606060048054806020026020016040519081016040528092919081815260200182805480156114d457602002820191906000526020600020905b8154815260200190600101908083116114c0575b5050505050905090565b6060826000811180156114f2575060055481105b61150e5760405162461bcd60e51b81526004016103aa90612c99565b6000818152600160205260409020600b015461153c5760405162461bcd60e51b81526004016103aa90612cda565b6000848152600260205260409020805484158061155857508085115b15611561578094505b8467ffffffffffffffff81111561157a5761157a612acc565b6040519080825280602002602001820160405280156115b357816020015b6115a06125a4565b8152602001906001900390816115985790505b50935060005b858110156118f85782816115ce600185612d0f565b6115d89190612d0f565b815481106115e8576115e8612c83565b90600052602060002090601f02016040518060a00160405290816000820154815260200160018201604051806101c00160405290816000820160009054906101000a900460ff1615151515815260200160018201805461164790612ae2565b80601f016020809104026020016040519081016040528092919081815260200182805461167390612ae2565b80156116c05780601f10611695576101008083540402835291602001916116c0565b820191906000526020600020905b8154815290600101906020018083116116a357829003601f168201915b5050509183525050600282015460208083019190915260038301546001600160a01b039081166040808501919091526004850154909116606084015260058401546080840152600684015460a0840152600784015460c0840152600884015460e08401526009840154610100840152600a840154610120840152600b840154610140840152600c840154610160840152600d909301546101809092019190915291835280516101c08101909152600f8401805460ff161515825260108501805494840194929391929184019161179590612ae2565b80601f01602080910402602001604051908101604052809291908181526020018280546117c190612ae2565b801561180e5780601f106117e35761010080835404028352916020019161180e565b820191906000526020600020905b8154815290600101906020018083116117f157829003601f168201915b5050509183525050600282015460208083019190915260038301546001600160a01b0390811660408085019190915260048501548216606085015260058501546080850152600685015460a0850152600785015460c0850152600885015460e08501526009850154610100850152600a850154610120850152600b850154610140850152600c850154610160850152600d9094015461018090930192909252928452601d85015492840192909252601e909301541691015285518690839081106118da576118da612c83565b602002602001018190525080806118f090612ab3565b9150506115b9565b5050505092915050565b61190a612388565b6001600160a01b0381166119605760405162461bcd60e51b815260206004820152601c60248201527f4d61726b657452656769737472793a207a65726f20616464726573730000000060448201526064016103aa565b600680546001600160a01b0319166001600160a01b0392909216919091179055565b6000546001600160a01b03163314806119a557506006546001600160a01b031633145b6119c15760405162461bcd60e51b81526004016103aa90612a56565b866000811180156119d3575060055481105b6119ef5760405162461bcd60e51b81526004016103aa90612c99565b6000818152600160205260409020600b0154611a1d5760405162461bcd60e51b81526004016103aa90612cda565b600088815260016020818152604080842081516101c08101909252805460ff16151582529283018054939493919285929084019190611a5b90612ae2565b80601f0160208091040260200160405190810160405280929190818152602001828054611a8790612ae2565b8015611ad45780601f10611aa957610100808354040283529160200191611ad4565b820191906000526020600020905b815481529060010190602001808311611ab757829003601f168201915b50505050508152602001600282015481526020016003820160009054906101000a90046001600160a01b03166001600160a01b03166001600160a01b031681526020016004820160009054906101000a90046001600160a01b03166001600160a01b03166001600160a01b031681526020016005820154815260200160068201548152602001600782015481526020016008820154815260200160098201548152602001600a8201548152602001600b8201548152602001600c8201548152602001600d8201548152505090508882600501819055508782600601819055508682600701819055508582600801819055508482600901819055508382600a01819055504282600c018190555081600d016000815480929190611bf590612ab3565b909155505060008a815260026020908152604091829020825160a0810184528d815280830185905283516101c081018552865460ff16151581526001870180549395929492850193919288929084019190611c4f90612ae2565b80601f0160208091040260200160405190810160405280929190818152602001828054611c7b90612ae2565b8015611cc85780601f10611c9d57610100808354040283529160200191611cc8565b820191906000526020600020905b815481529060010190602001808311611cab57829003601f168201915b505050918352505060028281015460208084019190915260038401546001600160a01b039081166040808601919091526004860154909116606085015260058501546080850152600685015460a0850152600785015460c0850152600885015460e08501526009850154610100850152600a850154610120850152600b850154610140850152600c850154610160850152600d909401546101809093019290925292845242848201523393909101929092528354600180820186556000958652948390208451601f90920201908155838301518051958201805460ff191696151596909617865592830151939490939091840190611dc69082612b65565b50604082810151600283015560608301516003830180546001600160a01b039283166001600160a01b031991821617909155608085015160048501805491909316911617905560a0830151600583015560c0830151600683015560e0830151600783015561010083015160088301556101208301516009830155610140830151600a830155610160830151600b830155610180830151600c8301556101a090920151600d909101558201518051600f8301805491151560ff1990921691909117815560208201516010840190611e9c9082612b65565b5060408281015160028301556060808401516003840180546001600160a01b03199081166001600160a01b0393841617909155608080870151600487018054841691851691909117905560a0870151600587015560c0870151600687015560e0870151600787015561010087015160088701556101208701516009870155610140870151600a870155610160870151600b870155610180870151600c8701556101a090960151600d9586015591870151601d8701559590930151601e90940180549093169390941692909217905583015481519081523360208201528b917f09b80f4c7c2d7629177e0f4d896b57d666c293f193df74b8f63c2136de4173df910160405180910390a250505050505050505050565b611fb961251e565b81600081118015611fcb575060055481105b611fe75760405162461bcd60e51b81526004016103aa90612c99565b6000818152600160205260409020600b01546120155760405162461bcd60e51b81526004016103aa90612cda565b60008381526001602081815260409283902083516101c08101909452805460ff161515845291820180549184019161204c90612ae2565b80601f016020809104026020016040519081016040528092919081815260200182805461207890612ae2565b80156120c55780601f1061209a576101008083540402835291602001916120c5565b820191906000526020600020905b8154815290600101906020018083116120a857829003601f168201915b50505091835250506002820154602082015260038201546001600160a01b039081166040830152600483015416606082015260058201546080820152600682015460a0820152600782015460c0820152600882015460e08201526009820154610100820152600a820154610120820152600b820154610140820152600c820154610160820152600d909101546101809091015291505b50919050565b60008082600081118015612176575060055481105b6121925760405162461bcd60e51b81526004016103aa90612c99565b6000818152600160205260409020600b01546121c05760405162461bcd60e51b81526004016103aa90612cda565b50505060009081526001602052604090208054600d9091015460ff90911691565b6121e9612388565b6001600160a01b03811661224e5760405162461bcd60e51b815260206004820152602660248201527f4f776e61626c653a206e6577206f776e657220697320746865207a65726f206160448201526564647265737360d01b60648201526084016103aa565b610f4f81612442565b60008160008111801561226b575060055481105b6122875760405162461bcd60e51b81526004016103aa90612c99565b6000818152600160205260409020600b01546122b55760405162461bcd60e51b81526004016103aa90612cda565b505060009081526001602052604090205460ff1690565b6004546000805b828110156123365760016000600483815481106122f2576122f2612c83565b6000918252602080832090910154835282019290925260400190205460ff1615612324578161232081612ab3565b9250505b8061232e81612ab3565b9150506122d3565b509091565b600054600160a01b900460ff16156112535760405162461bcd60e51b815260206004820152601060248201526f14185d5cd8589b194e881c185d5cd95960821b60448201526064016103aa565b6000546001600160a01b031633146112535760405162461bcd60e51b815260206004820181905260248201527f4f776e61626c653a2063616c6c6572206973206e6f7420746865206f776e657260448201526064016103aa565b6123ea61233b565b6000805460ff60a01b1916600160a01b1790557f62e78cea01bee320cd4e420270b5ea74000d11b0c9f74754ebdbfc544b05a2586124253390565b6040516001600160a01b03909116815260200160405180910390a1565b600080546001600160a01b038381166001600160a01b0319831681178455604051919092169283917f8be0079c531659141344cd1fd0a4f28419497f9722a3daafe3b4186f6b6457e09190a35050565b61249a6124ce565b6000805460ff60a01b191690557f5db9ee0a495bf2e6ff9c91a7834c1ba4fdd244a5e8aa4e537bd38aeae4b073aa33612425565b600054600160a01b900460ff166112535760405162461bcd60e51b815260206004820152601460248201527314185d5cd8589b194e881b9bdd081c185d5cd95960621b60448201526064016103aa565b604051806101c00160405280600015158152602001606081526020016000801916815260200160006001600160a01b0316815260200160006001600160a01b031681526020016000815260200160008152602001600081526020016000815260200160008152602001600081526020016000815260200160008152602001600081525090565b6040518060a00160405280600081526020016125be61251e565b81526020016125cb61251e565b815260006020820181905260409091015290565b60008083601f8401126125f157600080fd5b50813567ffffffffffffffff81111561260957600080fd5b602083019150836020828501011115610c9157600080fd5b80356001600160a01b038116811461263857600080fd5b919050565b60008060008060008060008060008060006101408c8e03121561265f57600080fd5b8b3567ffffffffffffffff81111561267657600080fd5b6126828e828f016125df565b909c509a505060208c0135985061269b60408d01612621565b97506126a960608d01612621565b9a9d999c50979a9699986080880135985060a08801359760c0810135975060e08101359650610100810135955061012001359350915050565b600080604083850312156126f557600080fd5b50508035926020909101359150565b6000815180845260005b8181101561272a5760208185018101518683018201520161270e565b506000602082860101526020601f19601f83011685010191505092915050565b82151581526040602082015260006127656040830184612704565b949350505050565b6000806020838503121561278057600080fd5b823567ffffffffffffffff81111561279757600080fd5b6127a3858286016125df565b90969095509350505050565b80511515825260006101c060208301518160208601526127d182860182612704565b9150506040830151604085015260608301516127f860608601826001600160a01b03169052565b50608083015161281360808601826001600160a01b03169052565b5060a0838101519085015260c0808401519085015260e08084015190850152610100808401519085015261012080840151908501526101408084015190850152610160808401519085015261018080840151908501526101a09283015192909301919091525090565b82815260406020820152600061276560408301846127af565b600080604083850312156128a857600080fd5b82359150602083013580151581146128bf57600080fd5b809150509250929050565b6020808252825182820181905260009190848201906040850190845b81811015612902578351835292840192918401916001016128e6565b50909695505050505050565b60006020808301818452808551808352604092508286019150828160051b87010184880160005b838110156129ae57603f19898403018552815160a08151855288820151818a870152612963828701826127af565b915050878201518582038987015261297b82826127af565b606084810151908801526080938401516001600160a01b0316939096019290925250509386019390860190600101612935565b509098975050505050505050565b6000602082840312156129ce57600080fd5b6129d782612621565b9392505050565b600080600080600080600060e0888a0312156129f957600080fd5b505085359760208701359750604087013596606081013596506080810135955060a0810135945060c0013592509050565b600060208284031215612a3c57600080fd5b5035919050565b6020815260006129d760208301846127af565b6020808252601f908201527f4d61726b657452656769737472793a206f6e6c7920676f7665726e616e636500604082015260600190565b8183823760009101908152919050565b634e487b7160e01b600052601160045260246000fd5b600060018201612ac557612ac5612a9d565b5060010190565b634e487b7160e01b600052604160045260246000fd5b600181811c90821680612af657607f821691505b60208210810361215b57634e487b7160e01b600052602260045260246000fd5b601f821115612b6057600081815260208120601f850160051c81016020861015612b3d5750805b601f850160051c820191505b81811015612b5c57828155600101612b49565b5050505b505050565b815167ffffffffffffffff811115612b7f57612b7f612acc565b612b9381612b8d8454612ae2565b84612b16565b602080601f831160018114612bc85760008415612bb05750858301515b600019600386901b1c1916600185901b178555612b5c565b600085815260208120601f198616915b82811015612bf757888601518255948401946001909101908401612bd8565b5085821015612c155787850151600019600388901b60f8161c191681555b5050505050600190811b01905550565b60c081528660c0820152868860e0830137600060e088830181019190915260208201969096526001600160a01b039485166040820152929093166060830152608082015260a0810191909152601f909201601f191690910101919050565b634e487b7160e01b600052603260045260246000fd5b60208082526021908201527f4d61726b657452656769737472793a20696e76616c6964206d61726b657420496040820152601160fa1b606082015260800190565b6020808252818101527f4d61726b657452656769737472793a206d61726b6574206e6f7420666f756e64604082015260600190565b81810381811115610e8957610e89612a9d56fe4d61726b657452656769737472793a2065786365656473206d617820706f736974696f6e2073697a654d61726b657452656769737472793a20696e76616c6964206d61726b6574204944a2646970667358221220f4631a3ef11a036eac9da6289e5fa47500574a222a6c44e59f23adbbcaac02b864736f6c63430008130033","linkReferences":{}},"methodIdentifiers":{"addMarket(string,bytes32,address,address,uint256,uint256,uint256,uint256,uint256,uint256)":"0d11ff86","configRegistry()":"244bb309","emergencyPause()":"51858e27","emergencyResume()":"93c87f03","getActiveMarkets()":"a5e973c3","getAllMarkets()":"b0772d0b","getMarket(uint256)":"eb44fdd3","getMarketBySymbol(string)":"2f54f852","getMarketCount()":"fd69f3c2","getMarketHistory(uint256,uint256)":"b1b4edeb","getMarketIdBySymbol(string)":"343f06df","getMarketStatus(uint256)":"ec5a711a","isMarketActive(uint256)":"f849f69e","owner()":"8da5cb5b","paused()":"5c975abb","renounceOwnership()":"715018a6","setConfigRegistry(address)":"c1efcca4","setMarketStatus(uint256,bool)":"615fc1bb","symbolExists(string)":"8c659fb8","transferOwnership(address)":"f2fde38b","updateMarket(uint256,uint256,uint256,uint256,uint256,uint256,uint256)":"e63d332f","updateOracleFeed(uint256,bytes32)":"597c131d","validateMarket(uint256,uint256)":"2bc9909a"},"id":2}