{"abi":[{"type":"constructor","inputs":[{"name":"initialGuardian","type":"address","internalType":"address"},{"name":"initialTimelock","type":"address","internalType":"address"}],"stateMutability":"nonpayable"},{"type":"function","name":"cancelConfigUpdate","inputs":[{"name":"configHash","type":"bytes32","internalType":"bytes32"}],"outputs":[],"stateMutability":"nonpayable"},{"type":"function","name":"emergencyDisableMarket","inputs":[{"name":"marketId","type":"uint256","internalType":"uint256"}],"outputs":[],"stateMutability":"nonpayable"},{"type":"function","name":"emergencyEnableMarket","inputs":[{"name":"marketId","type":"uint256","internalType":"uint256"}],"outputs":[],"stateMutability":"nonpayable"},{"type":"function","name":"executeConfigUpdate","inputs":[{"name":"configHash","type":"bytes32","internalType":"bytes32"}],"outputs":[],"stateMutability":"nonpayable"},{"type":"function","name":"getConfigGuardian","inputs":[],"outputs":[{"name":"guardian","type":"address","internalType":"address"}],"stateMutability":"view"},{"type":"function","name":"getConfigVersion","inputs":[],"outputs":[{"name":"","type":"uint256","internalType":"uint256"}],"stateMutability":"view"},{"type":"function","name":"getMarketConfig","inputs":[{"name":"marketId","type":"uint256","internalType":"uint256"}],"outputs":[{"name":"config","type":"tuple","internalType":"struct IConfigRegistry.MarketConfig","components":[{"name":"initialMarginRatio","type":"uint256","internalType":"uint256"},{"name":"maintenanceMarginRatio","type":"uint256","internalType":"uint256"},{"name":"liquidationFeeRatio","type":"uint256","internalType":"uint256"},{"name":"maxLeverage","type":"uint256","internalType":"uint256"},{"name":"maxPositionSize","type":"uint256","internalType":"uint256"},{"name":"maxOpenInterest","type":"uint256","internalType":"uint256"},{"name":"minPositionSize","type":"uint256","internalType":"uint256"},{"name":"fundingInterval","type":"uint256","internalType":"uint256"},{"name":"maxFundingRate","type":"uint256","internalType":"uint256"},{"name":"priceImpactK","type":"uint256","internalType":"uint256"},{"name":"isActive","type":"bool","internalType":"bool"},{"name":"createdAt","type":"uint256","internalType":"uint256"},{"name":"updatedAt","type":"uint256","internalType":"uint256"}]}],"stateMutability":"view"},{"type":"function","name":"getMaxPositionSize","inputs":[{"name":"marketId","type":"uint256","internalType":"uint256"}],"outputs":[{"name":"maxSize","type":"uint256","internalType":"uint256"}],"stateMutability":"view"},{"type":"function","name":"getMinMargin","inputs":[{"name":"marketId","type":"uint256","internalType":"uint256"},{"name":"size","type":"uint256","internalType":"uint256"}],"outputs":[{"name":"minMargin","type":"uint256","internalType":"uint256"}],"stateMutability":"view"},{"type":"function","name":"getProtocolConfig","inputs":[],"outputs":[{"name":"config","type":"tuple","internalType":"struct IConfigRegistry.ProtocolConfig","components":[{"name":"protocolFeeRatio","type":"uint256","internalType":"uint256"},{"name":"insuranceFundRatio","type":"uint256","internalType":"uint256"},{"name":"referralRewardRatio","type":"uint256","internalType":"uint256"},{"name":"minLiquidationReward","type":"uint256","internalType":"uint256"},{"name":"maxLiquidationReward","type":"uint256","internalType":"uint256"},{"name":"liquidationGracePeriod","type":"uint256","internalType":"uint256"},{"name":"oracleHeartbeat","type":"uint256","internalType":"uint256"},{"name":"maxPriceDeviation","type":"uint256","internalType":"uint256"},{"name":"insuranceFund","type":"address","internalType":"address"},{"name":"feeCollector","type":"address","internalType":"address"},{"name":"emergencyAdmin","type":"address","internalType":"address"}]}],"stateMutability":"view"},{"type":"function","name":"getRiskConfig","inputs":[],"outputs":[{"name":"config","type":"tuple","internalType":"struct IConfigRegistry.RiskConfig","components":[{"name":"volatilityThreshold","type":"uint256","internalType":"uint256"},{"name":"circuitBreakerThreshold","type":"uint256","internalType":"uint256"},{"name":"maxDrawdown","type":"uint256","internalType":"uint256"},{"name":"recoveryPeriod","type":"uint256","internalType":"uint256"},{"name":"positionConcentration","type":"uint256","internalType":"uint256"},{"name":"marginCallThreshold","type":"uint256","internalType":"uint256"}]}],"stateMutability":"view"},{"type":"function","name":"getScheduledUpdate","inputs":[{"name":"configHash","type":"bytes32","internalType":"bytes32"}],"outputs":[{"name":"","type":"tuple","internalType":"struct ProtocolConfig.ScheduledUpdate","components":[{"name":"configHash","type":"bytes32","internalType":"bytes32"},{"name":"eta","type":"uint256","internalType":"uint256"},{"name":"executed","type":"bool","internalType":"bool"},{"name":"cancelled","type":"bool","internalType":"bool"},{"name":"proposedBy","type":"address","internalType":"address"}]}],"stateMutability":"view"},{"type":"function","name":"initializeMarket","inputs":[{"name":"marketId","type":"uint256","internalType":"uint256"},{"name":"config","type":"tuple","internalType":"struct IConfigRegistry.MarketConfig","components":[{"name":"initialMarginRatio","type":"uint256","internalType":"uint256"},{"name":"maintenanceMarginRatio","type":"uint256","internalType":"uint256"},{"name":"liquidationFeeRatio","type":"uint256","internalType":"uint256"},{"name":"maxLeverage","type":"uint256","internalType":"uint256"},{"name":"maxPositionSize","type":"uint256","internalType":"uint256"},{"name":"maxOpenInterest","type":"uint256","internalType":"uint256"},{"name":"minPositionSize","type":"uint256","internalType":"uint256"},{"name":"fundingInterval","type":"uint256","internalType":"uint256"},{"name":"maxFundingRate","type":"uint256","internalType":"uint256"},{"name":"priceImpactK","type":"uint256","internalType":"uint256"},{"name":"isActive","type":"bool","internalType":"bool"},{"name":"createdAt","type":"uint256","internalType":"uint256"},{"name":"updatedAt","type":"uint256","internalType":"uint256"}]}],"outputs":[],"stateMutability":"nonpayable"},{"type":"function","name":"isMarketActive","inputs":[{"name":"marketId","type":"uint256","internalType":"uint256"}],"outputs":[{"name":"active","type":"bool","internalType":"bool"}],"stateMutability":"view"},{"type":"function","name":"isUpdatePending","inputs":[{"name":"configHash","type":"bytes32","internalType":"bytes32"}],"outputs":[{"name":"","type":"bool","internalType":"bool"}],"stateMutability":"view"},{"type":"function","name":"owner","inputs":[],"outputs":[{"name":"","type":"address","internalType":"address"}],"stateMutability":"view"},{"type":"function","name":"paused","inputs":[],"outputs":[{"name":"","type":"bool","internalType":"bool"}],"stateMutability":"view"},{"type":"function","name":"renounceOwnership","inputs":[],"outputs":[],"stateMutability":"nonpayable"},{"type":"function","name":"scheduleConfigUpdate","inputs":[{"name":"configHash","type":"bytes32","internalType":"bytes32"},{"name":"eta","type":"uint256","internalType":"uint256"}],"outputs":[],"stateMutability":"nonpayable"},{"type":"function","name":"setTimelockController","inputs":[{"name":"newTimelock","type":"address","internalType":"address"}],"outputs":[],"stateMutability":"nonpayable"},{"type":"function","name":"timelockController","inputs":[],"outputs":[{"name":"","type":"address","internalType":"address"}],"stateMutability":"view"},{"type":"function","name":"transferOwnership","inputs":[{"name":"newOwner","type":"address","internalType":"address"}],"outputs":[],"stateMutability":"nonpayable"},{"type":"function","name":"updateConfigGuardian","inputs":[{"name":"newGuardian","type":"address","internalType":"address"}],"outputs":[],"stateMutability":"nonpayable"},{"type":"function","name":"updateMarketConfig","inputs":[{"name":"marketId","type":"uint256","internalType":"uint256"},{"name":"newConfig","type":"tuple","internalType":"struct IConfigRegistry.MarketConfig","components":[{"name":"initialMarginRatio","type":"uint256","internalType":"uint256"},{"name":"maintenanceMarginRatio","type":"uint256","internalType":"uint256"},{"name":"liquidationFeeRatio","type":"uint256","internalType":"uint256"},{"name":"maxLeverage","type":"uint256","internalType":"uint256"},{"name":"maxPositionSize","type":"uint256","internalType":"uint256"},{"name":"maxOpenInterest","type":"uint256","internalType":"uint256"},{"name":"minPositionSize","type":"uint256","internalType":"uint256"},{"name":"fundingInterval","type":"uint256","internalType":"uint256"},{"name":"maxFundingRate","type":"uint256","internalType":"uint256"},{"name":"priceImpactK","type":"uint256","internalType":"uint256"},{"name":"isActive","type":"bool","internalType":"bool"},{"name":"createdAt","type":"uint256","internalType":"uint256"},{"name":"updatedAt","type":"uint256","internalType":"uint256"}]}],"outputs":[],"stateMutability":"nonpayable"},{"type":"function","name":"updateProtocolConfig","inputs":[{"name":"newConfig","type":"tuple","internalType":"struct IConfigRegistry.ProtocolConfig","components":[{"name":"protocolFeeRatio","type":"uint256","internalType":"uint256"},{"name":"insuranceFundRatio","type":"uint256","internalType":"uint256"},{"name":"referralRewardRatio","type":"uint256","internalType":"uint256"},{"name":"minLiquidationReward","type":"uint256","internalType":"uint256"},{"name":"maxLiquidationReward","type":"uint256","internalType":"uint256"},{"name":"liquidationGracePeriod","type":"uint256","internalType":"uint256"},{"name":"oracleHeartbeat","type":"uint256","internalType":"uint256"},{"name":"maxPriceDeviation","type":"uint256","internalType":"uint256"},{"name":"insuranceFund","type":"address","internalType":"address"},{"name":"feeCollector","type":"address","internalType":"address"},{"name":"emergencyAdmin","type":"address","internalType":"address"}]}],"outputs":[],"stateMutability":"nonpayable"},{"type":"function","name":"updateRiskConfig","inputs":[{"name":"newConfig","type":"tuple","internalType":"struct IConfigRegistry.RiskConfig","components":[{"name":"volatilityThreshold","type":"uint256","internalType":"uint256"},{"name":"circuitBreakerThreshold","type":"uint256","internalType":"uint256"},{"name":"maxDrawdown","type":"uint256","internalType":"uint256"},{"name":"recoveryPeriod","type":"uint256","internalType":"uint256"},{"name":"positionConcentration","type":"uint256","internalType":"uint256"},{"name":"marginCallThreshold","type":"uint256","internalType":"uint256"}]}],"outputs":[],"stateMutability":"nonpayable"},{"type":"function","name":"validateMarketParameters","inputs":[{"name":"marketId","type":"uint256","internalType":"uint256"},{"name":"size","type":"uint256","internalType":"uint256"},{"name":"leverage","type":"uint256","internalType":"uint256"}],"outputs":[{"name":"valid","type":"bool","internalType":"bool"}],"stateMutability":"view"},{"type":"event","name":"ConfigGuardianUpdated","inputs":[{"name":"oldGuardian","type":"address","indexed":false,"internalType":"address"},{"name":"newGuardian","type":"address","indexed":false,"internalType":"address"}],"anonymous":false},{"type":"event","name":"ConfigUpdateCancelled","inputs":[{"name":"configHash","type":"bytes32","indexed":true,"internalType":"bytes32"}],"anonymous":false},{"type":"event","name":"ConfigUpdateExecuted","inputs":[{"name":"configHash","type":"bytes32","indexed":true,"internalType":"bytes32"}],"anonymous":false},{"type":"event","name":"ConfigUpdateScheduled","inputs":[{"name":"configHash","type":"bytes32","indexed":true,"internalType":"bytes32"},{"name":"eta","type":"uint256","indexed":false,"internalType":"uint256"}],"anonymous":false},{"type":"event","name":"MarketConfigUpdated","inputs":[{"name":"marketId","type":"uint256","indexed":true,"internalType":"uint256"},{"name":"oldConfig","type":"tuple","indexed":false,"internalType":"struct IConfigRegistry.MarketConfig","components":[{"name":"initialMarginRatio","type":"uint256","internalType":"uint256"},{"name":"maintenanceMarginRatio","type":"uint256","internalType":"uint256"},{"name":"liquidationFeeRatio","type":"uint256","internalType":"uint256"},{"name":"maxLeverage","type":"uint256","internalType":"uint256"},{"name":"maxPositionSize","type":"uint256","internalType":"uint256"},{"name":"maxOpenInterest","type":"uint256","internalType":"uint256"},{"name":"minPositionSize","type":"uint256","internalType":"uint256"},{"name":"fundingInterval","type":"uint256","internalType":"uint256"},{"name":"maxFundingRate","type":"uint256","internalType":"uint256"},{"name":"priceImpactK","type":"uint256","internalType":"uint256"},{"name":"isActive","type":"bool","internalType":"bool"},{"name":"createdAt","type":"uint256","internalType":"uint256"},{"name":"updatedAt","type":"uint256","internalType":"uint256"}]},{"name":"newConfig","type":"tuple","indexed":false,"internalType":"struct IConfigRegistry.MarketConfig","components":[{"name":"initialMarginRatio","type":"uint256","internalType":"uint256"},{"name":"maintenanceMarginRatio","type":"uint256","internalType":"uint256"},{"name":"liquidationFeeRatio","type":"uint256","internalType":"uint256"},{"name":"maxLeverage","type":"uint256","internalType":"uint256"},{"name":"maxPositionSize","type":"uint256","internalType":"uint256"},{"name":"maxOpenInterest","type":"uint256","internalType":"uint256"},{"name":"minPositionSize","type":"uint256","internalType":"uint256"},{"name":"fundingInterval","type":"uint256","internalType":"uint256"},{"name":"maxFundingRate","type":"uint256","internalType":"uint256"},{"name":"priceImpactK","type":"uint256","internalType":"uint256"},{"name":"isActive","type":"bool","internalType":"bool"},{"name":"createdAt","type":"uint256","internalType":"uint256"},{"name":"updatedAt","type":"uint256","internalType":"uint256"}]}],"anonymous":false},{"type":"event","name":"MarketInitialized","inputs":[{"name":"marketId","type":"uint256","indexed":true,"internalType":"uint256"},{"name":"config","type":"tuple","indexed":false,"internalType":"struct IConfigRegistry.MarketConfig","components":[{"name":"initialMarginRatio","type":"uint256","internalType":"uint256"},{"name":"maintenanceMarginRatio","type":"uint256","internalType":"uint256"},{"name":"liquidationFeeRatio","type":"uint256","internalType":"uint256"},{"name":"maxLeverage","type":"uint256","internalType":"uint256"},{"name":"maxPositionSize","type":"uint256","internalType":"uint256"},{"name":"maxOpenInterest","type":"uint256","internalType":"uint256"},{"name":"minPositionSize","type":"uint256","internalType":"uint256"},{"name":"fundingInterval","type":"uint256","internalType":"uint256"},{"name":"maxFundingRate","type":"uint256","internalType":"uint256"},{"name":"priceImpactK","type":"uint256","internalType":"uint256"},{"name":"isActive","type":"bool","internalType":"bool"},{"name":"createdAt","type":"uint256","internalType":"uint256"},{"name":"updatedAt","type":"uint256","internalType":"uint256"}]}],"anonymous":false},{"type":"event","name":"MarketStatusChanged","inputs":[{"name":"marketId","type":"uint256","indexed":true,"internalType":"uint256"},{"name":"isActive","type":"bool","indexed":false,"internalType":"bool"}],"anonymous":false},{"type":"event","name":"OwnershipTransferred","inputs":[{"name":"previousOwner","type":"address","indexed":true,"internalType":"address"},{"name":"newOwner","type":"address","indexed":true,"internalType":"address"}],"anonymous":false},{"type":"event","name":"Paused","inputs":[{"name":"account","type":"address","indexed":false,"internalType":"address"}],"anonymous":false},{"type":"event","name":"ProtocolConfigUpdated","inputs":[{"name":"oldConfig","type":"tuple","indexed":false,"internalType":"struct IConfigRegistry.ProtocolConfig","components":[{"name":"protocolFeeRatio","type":"uint256","internalType":"uint256"},{"name":"insuranceFundRatio","type":"uint256","internalType":"uint256"},{"name":"referralRewardRatio","type":"uint256","internalType":"uint256"},{"name":"minLiquidationReward","type":"uint256","internalType":"uint256"},{"name":"maxLiquidationReward","type":"uint256","internalType":"uint256"},{"name":"liquidationGracePeriod","type":"uint256","internalType":"uint256"},{"name":"oracleHeartbeat","type":"uint256","internalType":"uint256"},{"name":"maxPriceDeviation","type":"uint256","internalType":"uint256"},{"name":"insuranceFund","type":"address","internalType":"address"},{"name":"feeCollector","type":"address","internalType":"address"},{"name":"emergencyAdmin","type":"address","internalType":"address"}]},{"name":"newConfig","type":"tuple","indexed":false,"internalType":"struct IConfigRegistry.ProtocolConfig","components":[{"name":"protocolFeeRatio","type":"uint256","internalType":"uint256"},{"name":"insuranceFundRatio","type":"uint256","internalType":"uint256"},{"name":"referralRewardRatio","type":"uint256","internalType":"uint256"},{"name":"minLiquidationReward","type":"uint256","internalType":"uint256"},{"name":"maxLiquidationReward","type":"uint256","internalType":"uint256"},{"name":"liquidationGracePeriod","type":"uint256","internalType":"uint256"},{"name":"oracleHeartbeat","type":"uint256","internalType":"uint256"},{"name":"maxPriceDeviation","type":"uint256","internalType":"uint256"},{"name":"insuranceFund","type":"address","internalType":"address"},{"name":"feeCollector","type":"address","internalType":"address"},{"name":"emergencyAdmin","type":"address","internalType":"address"}]}],"anonymous":false},{"type":"event","name":"RiskConfigUpdated","inputs":[{"name":"oldConfig","type":"tuple","indexed":false,"internalType":"struct IConfigRegistry.RiskConfig","components":[{"name":"volatilityThreshold","type":"uint256","internalType":"uint256"},{"name":"circuitBreakerThreshold","type":"uint256","internalType":"uint256"},{"name":"maxDrawdown","type":"uint256","internalType":"uint256"},{"name":"recoveryPeriod","type":"uint256","internalType":"uint256"},{"name":"positionConcentration","type":"uint256","internalType":"uint256"},{"name":"marginCallThreshold","type":"uint256","internalType":"uint256"}]},{"name":"newConfig","type":"tuple","indexed":false,"internalType":"struct IConfigRegistry.RiskConfig","components":[{"name":"volatilityThreshold","type":"uint256","internalType":"uint256"},{"name":"circuitBreakerThreshold","type":"uint256","internalType":"uint256"},{"name":"maxDrawdown","type":"uint256","internalType":"uint256"},{"name":"recoveryPeriod","type":"uint256","internalType":"uint256"},{"name":"positionConcentration","type":"uint256","internalType":"uint256"},{"name":"marginCallThreshold","type":"uint256","internalType":"uint256"}]}],"anonymous":false},{"type":"event","name":"Unpaused","inputs":[{"name":"account","type":"address","indexed":false,"internalType":"address"}],"anonymous":false},{"type":"error","name":"DivisionByZero","inputs":[]}],"bytecode":{"object":"0x60806040523480156200001157600080fd5b5060405162002e4c38038062002e4c8339810160408190526200003491620003d2565b6200003f3362000365565b6000805460ff60a01b191690556001600160a01b038216620000a85760405162461bcd60e51b815260206004820152601d60248201527f50726f746f636f6c436f6e6669673a207a65726f20677561726469616e00000060448201526064015b60405180910390fd5b6001600160a01b038116620001005760405162461bcd60e51b815260206004820152601d60248201527f50726f746f636f6c436f6e6669673a207a65726f2074696d656c6f636b00000060448201526064016200009f565b601380546001600160a01b038085166001600160a01b031992831617909255601480549284169290911691909117905560408051610160810190915280620001536103e8670de0b6b3a76400006200040a565b81526020016200016d6064670de0b6b3a76400006200040a565b8152602001620001886101f4670de0b6b3a76400006200040a565b8152602001620001a2670de0b6b3a764000060646200042d565b8152602001620001bd670de0b6b3a76400006127106200042d565b8152610e10602082015260786040820152606001620001e66064670de0b6b3a76400006200040a565b8152600060208083018290526040808401929092526001600160a01b038681166060948501528451600255908401516003558382015160045591830151600555608083015160065560a083015160075560c08084015160085560e0840151600955610100840151600a80549185166001600160a01b0319928316178155610120860151600b805491871691841691909117905561014090950151600c80549190951691161790925580519182019052908190620002ac90670de0b6b3a76400006200040a565b8152602001620002c66005670de0b6b3a76400006200040a565b8152602001620002e06002670de0b6b3a76400006200040a565b8152610e106020820152604001620003026014670de0b6b3a76400006200040a565b815260200160646200031e670de0b6b3a7640000607d6200042d565b6200032a91906200040a565b90528051600d556020810151600e556040810151600f556060810151601055608081015160115560a001516012555050600160165562000459565b600080546001600160a01b038381166001600160a01b0319831681178455604051919092169283917f8be0079c531659141344cd1fd0a4f28419497f9722a3daafe3b4186f6b6457e09190a35050565b80516001600160a01b0381168114620003cd57600080fd5b919050565b60008060408385031215620003e657600080fd5b620003f183620003b5565b91506200040160208401620003b5565b90509250929050565b6000826200042857634e487b7160e01b600052601260045260246000fd5b500490565b80820281158282048414176200045357634e487b7160e01b600052601160045260246000fd5b92915050565b6129e380620004696000396000f3fe608060405234801561001057600080fd5b50600436106101a95760003560e01c80639634a22e116100f9578063b403828511610097578063ef6984d311610071578063ef6984d314610466578063f2fde38b14610479578063f3388e751461048c578063f849f69e1461049f57600080fd5b8063b40382851461042b578063bb5d3aed1461043e578063ed700b3e1461045157600080fd5b8063a4502c7a116100d3578063a4502c7a1461030d578063a5115d5c14610320578063a6b06a6614610331578063a8e97c891461034457600080fd5b80639634a22e146102df5780639c9ef682146102f25780639dc6edc71461030557600080fd5b8063532bc14711610166578063715018a611610140578063715018a61461028c57806385c5f84514610294578063881a960e146102a75780638da5cb5b146102ba57600080fd5b8063532bc147146102485780635c975abb1461025b5780635cf959201461027957600080fd5b806306134fdf146101ae5780630a141b24146101cc57806317bfdcec146101e15780632a94ac3f14610202578063336c7d8e146102155780633bdd5d8114610228575b600080fd5b6101b66104b2565b6040516101c39190612256565b60405180910390f35b6101df6101da36600461229f565b610528565b005b6101f46101ef3660046122b8565b61060a565b6040519081526020016101c3565b6101df6102103660046122ff565b610685565b6101df6102233660046122b8565b610705565b61023b61023636600461229f565b6108b1565b6040516101c391906123ab565b6101df6102563660046123ba565b610a16565b600054600160a01b900460ff165b60405190151581526020016101c3565b6101df61028736600461229f565b610c52565b6101df610d29565b6101df6102a23660046122ff565b610d3d565b6101f46102b536600461229f565b610e1e565b6000546001600160a01b03165b6040516001600160a01b0390911681526020016101c3565b6102696102ed3660046123f4565b610e83565b61026961030036600461229f565b610f3e565b6016546101f4565b6101df61031b36600461229f565b610f7e565b6013546001600160a01b03166102c7565b6101df61033f366004612420565b611148565b6103e161035236600461229f565b6040805160a08101825260008082526020820181905291810182905260608101829052608081019190915250600090815260156020908152604091829020825160a081018452815481526001820154928101929092526002015460ff808216151593830193909352610100810490921615156060820152620100009091046001600160a01b0316608082015290565b6040516101c3919081518152602080830151908201526040808301511515908201526060808301511515908201526080918201516001600160a01b03169181019190915260a00190565b6101df61043936600461229f565b61124c565b6101df61044c366004612438565b6113ce565b6104596114b6565b6040516101c391906124d8565b6101df6104743660046123ba565b6115a5565b6101df6104873660046122ff565b611707565b6014546102c7906001600160a01b031681565b6102696104ad36600461229f565b611780565b6104eb6040518060c001604052806000815260200160008152602001600081526020016000815260200160008152602001600081525090565b506040805160c081018252600d548152600e546020820152600f54918101919091526010546060820152601154608082015260125460a082015290565b6013546001600160a01b0316331461055b5760405162461bcd60e51b8152600401610552906124e7565b60405180910390fd5b6000818152600160205260409020600a81015460ff166105bd5760405162461bcd60e51b815260206004820181905260248201527f50726f746f636f6c436f6e6669673a20616c726561647920696e6163746976656044820152606401610552565b600a8101805460ff1916905542600c8201556040516000815282907f315acb57a244ad83f9f375c1ef115a0af14f9a4baed65840b493b4396aef5e41906020015b60405180910390a25050565b6000828152600160205260408120600a0154839060ff168061063c57506000818152600160205260409020600b015415155b6106585760405162461bcd60e51b81526004016105529061251e565b6000848152600160205260409020805461067c908590670de0b6b3a76400006117e8565b95945050505050565b61068d61181e565b6001600160a01b0381166106e35760405162461bcd60e51b815260206004820152601c60248201527f50726f746f636f6c436f6e6669673a207a65726f2061646472657373000000006044820152606401610552565b601480546001600160a01b0319166001600160a01b0392909216919091179055565b6014546001600160a01b0316331461072f5760405162461bcd60e51b815260040161055290612553565b42811161078c5760405162461bcd60e51b815260206004820152602560248201527f50726f746f636f6c436f6e6669673a20657461206d75737420626520696e2066604482015264757475726560d81b6064820152608401610552565b600082815260156020526040902060010154156107f55760405162461bcd60e51b815260206004820152602160248201527f50726f746f636f6c436f6e6669673a20616c7265616479207363686564756c656044820152601960fa1b6064820152608401610552565b6040805160a08101825283815260208082018481526000838501818152606085018281523360808701908152898452601586529287902095518655925160018601555160029094018054925191516001600160a01b0316620100000262010000600160b01b03199215156101000261ff00199615159690961661ffff1990941693909317949094171617909155905182815283917f16bdf899fc719ca6bcf525df9e76323efab27d6d2d16f912b275b67957ec90da91016105fe565b61091e604051806101a001604052806000815260200160008152602001600081526020016000815260200160008152602001600081526020016000815260200160008152602001600081526020016000815260200160001515815260200160008152602001600081525090565b6000828152600160205260409020600a0154829060ff168061095057506000818152600160205260409020600b015415155b61096c5760405162461bcd60e51b81526004016105529061251e565b505060009081526001602081815260409283902083516101a0810185528154815292810154918301919091526002810154928201929092526003820154606082015260048201546080820152600582015460a0820152600682015460c0820152600782015460e082015260088201546101008201526009820154610120820152600a82015460ff161515610140820152600b820154610160820152600c9091015461018082015290565b6014546001600160a01b03163314610a405760405162461bcd60e51b815260040161055290612553565b6000828152600160205260409020600a0154829060ff1680610a7257506000818152600160205260409020600b015415155b610a8e5760405162461bcd60e51b81526004016105529061251e565b6000838152600160205260409020610aa583611878565b600081604051806101a001604052908160008201548152602001600182015481526020016002820154815260200160038201548152602001600482015481526020016005820154815260200160068201548152602001600782015481526020016008820154815260200160098201548152602001600a820160009054906101000a900460ff16151515158152602001600b8201548152602001600c82015481525050905083600001358260000181905550836020013582600101819055508360400135826002018190555083606001358260030181905550836080013582600401819055508360a0013582600501819055508360c0013582600601819055508360e0013582600701819055508361010001358260080181905550836101200135826009018190555083610140016020810190610be191906125a3565b600a8301805460ff191691151591909117905542600c83015560405185907fcb3462ca6c73b82bf813fb2a3925fe8cb9e70b3b74b7902c65147e8c069a997a90610c2e90849088906125c0565b60405180910390a260168054906000610c4683612686565b91905055505050505050565b6013546001600160a01b03163314610c7c5760405162461bcd60e51b8152600401610552906124e7565b6000818152600160205260409020600a81015460ff1615610cdf5760405162461bcd60e51b815260206004820152601e60248201527f50726f746f636f6c436f6e6669673a20616c72656164792061637469766500006044820152606401610552565b600a8101805460ff1916600190811790915542600c83015560405190815282907f315acb57a244ad83f9f375c1ef115a0af14f9a4baed65840b493b4396aef5e41906020016105fe565b610d3161181e565b610d3b6000611b65565b565b6013546001600160a01b03163314610d675760405162461bcd60e51b8152600401610552906124e7565b6001600160a01b038116610dbd5760405162461bcd60e51b815260206004820152601c60248201527f50726f746f636f6c436f6e6669673a207a65726f2061646472657373000000006044820152606401610552565b601380546001600160a01b038381166001600160a01b031983168117909355604080519190921680825260208201939093527fabe481eac5b1648fde533e1314a2272511044b4cedf5ad3a76a2bef816210ba3910160405180910390a15050565b6000818152600160205260408120600a0154829060ff1680610e5057506000818152600160205260409020600b015415155b610e6c5760405162461bcd60e51b81526004016105529061251e565b505060009081526001602052604090206004015490565b6000838152600160205260408120600a81015460ff16610ea7576000915050610f37565b8060060154841015610ebd576000915050610f37565b8060040154841115610ed3576000915050610f37565b8060030154831115610ee9576000915050610f37565b8054600090610f02908690670de0b6b3a76400006117e8565b90506000610f1986670de0b6b3a7640000876117e8565b905081811015610f2f5760009350505050610f37565b600193505050505b9392505050565b6000818152601560205260408120600181015415801590610f645750600281015460ff16155b8015610f37575060020154610100900460ff161592915050565b6014546001600160a01b03163314610fa85760405162461bcd60e51b815260040161055290612553565b600081815260156020526040902060018101546110075760405162461bcd60e51b815260206004820152601d60248201527f50726f746f636f6c436f6e6669673a206e6f74207363686564756c65640000006044820152606401610552565b600281015460ff161561105c5760405162461bcd60e51b815260206004820181905260248201527f50726f746f636f6c436f6e6669673a20616c72656164792065786563757465646044820152606401610552565b6002810154610100900460ff16156110b65760405162461bcd60e51b815260206004820152601960248201527f50726f746f636f6c436f6e6669673a2063616e63656c6c6564000000000000006044820152606401610552565b806001015442101561110a5760405162461bcd60e51b815260206004820152601f60248201527f50726f746f636f6c436f6e6669673a20657461206e6f742072656163686564006044820152606401610552565b60028101805460ff1916600117905560405182907f1f9b31d5cfda9144b705d621b0a97c5bbe003c31bbb83d5eaa540bc78981168690600090a25050565b6014546001600160a01b031633146111725760405162461bcd60e51b815260040161055290612553565b61117b81611bb5565b6040805160c081018252600d80548252600e546020830152600f54928201929092526010546060820152601154608082015260125460a08201529082906111f78282813581556020820135600182015560408201356002820155606082013560038201556080820135600482015560a082013560058201555050565b9050507fe89b81ee4216bb7027788f0e6f75a592a8bf2393e3521f5c088e2003e6dbd0ab818360405161122b92919061269f565b60405180910390a16016805490600061124383612686565b91905055505050565b6014546001600160a01b031633146112765760405162461bcd60e51b815260040161055290612553565b600081815260156020526040902060018101546112d55760405162461bcd60e51b815260206004820152601d60248201527f50726f746f636f6c436f6e6669673a206e6f74207363686564756c65640000006044820152606401610552565b600281015460ff161561132a5760405162461bcd60e51b815260206004820181905260248201527f50726f746f636f6c436f6e6669673a20616c72656164792065786563757465646044820152606401610552565b6002810154610100900460ff161561138e5760405162461bcd60e51b815260206004820152602160248201527f50726f746f636f6c436f6e6669673a20616c72656164792063616e63656c6c656044820152601960fa1b6064820152608401610552565b60028101805461ff00191661010017905560405182907fbeb1b637cdfef0edaaf7c5a73e28a0f360e91374ef6d3cd4cb5a36d5d5904a8290600090a25050565b6014546001600160a01b031633146113f85760405162461bcd60e51b815260040161055290612553565b61140181611e1d565b60408051610160810182526002805482526003546020830152600454928201929092526005546060820152600654608082015260075460a082015260085460c082015260095460e0820152600a546001600160a01b03908116610100830152600b548116610120830152600c54166101408201529082906114828282612754565b9050507f9ec2b04cbe78cc59264c7ba886fee48eef7fc35b2cfb1a6038b96a8bf0d4feb3818360405161122b9291906127ed565b61152e604051806101600160405280600081526020016000815260200160008152602001600081526020016000815260200160008152602001600081526020016000815260200160006001600160a01b0316815260200160006001600160a01b0316815260200160006001600160a01b031681525090565b50604080516101608101825260025481526003546020820152600454918101919091526005546060820152600654608082015260075460a082015260085460c082015260095460e0820152600a546001600160a01b03908116610100830152600b548116610120830152600c541661014082015290565b6115ad61181e565b6000828152600160205260409020600b01541561160c5760405162461bcd60e51b815260206004820152601d60248201527f50726f746f636f6c436f6e6669673a206d61726b6574206578697374730000006044820152606401610552565b61161581611878565b6000828152600160205260409020819061162f82826128bb565b50506000828152600160205260409081902042600b8201819055600c820155905183917f4cd59c9136101e682bc267bca13555959f088a5df4e121401032c77fa3170b9b916105fe91908154815260018201546020820152600282015460408201526003820154606082015260048201546080820152600582015460a0820152600682015460c0820152600782015460e082015260088201546101008201526009820154610120820152600a82015460ff161515610140820152600b820154610160820152600c909101546101808201526101a00190565b61170f61181e565b6001600160a01b0381166117745760405162461bcd60e51b815260206004820152602660248201527f4f776e61626c653a206e6577206f776e657220697320746865207a65726f206160448201526564647265737360d01b6064820152608401610552565b61177d81611b65565b50565b6000818152600160205260408120600a0154829060ff16806117b257506000818152600160205260409020600b015415155b6117ce5760405162461bcd60e51b81526004016105529061251e565b50506000908152600160205260409020600a015460ff1690565b60008160000361180b576040516323d359a360e01b815260040160405180910390fd5b61181684848461216c565b949350505050565b6000546001600160a01b03163314610d3b5760405162461bcd60e51b815260206004820181905260248201527f4f776e61626c653a2063616c6c6572206973206e6f7420746865206f776e65726044820152606401610552565b80356118d25760405162461bcd60e51b815260206004820152602360248201527f50726f746f636f6c436f6e6669673a207a65726f20696e697469616c206d617260448201526233b4b760e91b6064820152608401610552565b60008160200135116119365760405162461bcd60e51b815260206004820152602760248201527f50726f746f636f6c436f6e6669673a207a65726f206d61696e74656e616e63656044820152661036b0b933b4b760c91b6064820152608401610552565b60208101358135116119a05760405162461bcd60e51b815260206004820152602d60248201527f50726f746f636f6c436f6e6669673a20696e697469616c206d7573742062652060448201526c3e206d61696e74656e616e636560981b6064820152608401610552565b6119b3670de0b6b3a7640000606461295e565b81606001351115611a105760405162461bcd60e51b815260206004820152602160248201527f50726f746f636f6c436f6e6669673a206c6576657261676520746f6f206869676044820152600d60fb1b6064820152608401610552565b611a23600a670de0b6b3a764000061298b565b81604001351115611a765760405162461bcd60e51b815260206004820152601c60248201527f50726f746f636f6c436f6e6669673a2066656520746f6f2068696768000000006044820152606401610552565b611a89600a670de0b6b3a764000061298b565b8161010001351115611aeb5760405162461bcd60e51b815260206004820152602560248201527f50726f746f636f6c436f6e6669673a2066756e64696e67207261746520746f6f604482015264040d0d2ced60db1b6064820152608401610552565b610e108160e0013510158015611b085750620151808160e0013511155b61177d5760405162461bcd60e51b815260206004820152602860248201527f50726f746f636f6c436f6e6669673a20696e76616c69642066756e64696e67206044820152671a5b9d195c9d985b60c21b6064820152608401610552565b600080546001600160a01b038381166001600160a01b0319831681178455604051919092169283917f8be0079c531659141344cd1fd0a4f28419497f9722a3daafe3b4186f6b6457e09190a35050565b670de0b6b3a764000081351115611c1a5760405162461bcd60e51b815260206004820152602360248201527f50726f746f636f6c436f6e6669673a20766f6c6174696c69747920746f6f20686044820152620d2ced60eb1b6064820152608401610552565b670de0b6b3a764000081602001351115611c765760405162461bcd60e51b815260206004820181905260248201527f50726f746f636f6c436f6e6669673a20627265616b657220746f6f20686967686044820152606401610552565b670de0b6b3a764000081604001351115611cdc5760405162461bcd60e51b815260206004820152602160248201527f50726f746f636f6c436f6e6669673a2064726177646f776e20746f6f206869676044820152600d60fb1b6064820152608401610552565b6201518081606001351115611d3d5760405162461bcd60e51b815260206004820152602160248201527f50726f746f636f6c436f6e6669673a207265636f7665727920746f6f206c6f6e6044820152606760f81b6064820152608401610552565b611d50600a670de0b6b3a764000061298b565b81608001351115611db25760405162461bcd60e51b815260206004820152602660248201527f50726f746f636f6c436f6e6669673a20636f6e63656e74726174696f6e20746f6044820152650de40d0d2ced60d31b6064820152608401610552565b670de0b6b3a76400008160a00135101561177d5760405162461bcd60e51b815260206004820152602660248201527f50726f746f636f6c436f6e6669673a2063616c6c207468726573686f6c6420746044820152656f6f206c6f7760d01b6064820152608401610552565b611e30600a670de0b6b3a764000061298b565b81351115611e805760405162461bcd60e51b815260206004820152601c60248201527f50726f746f636f6c436f6e6669673a2066656520746f6f2068696768000000006044820152606401610552565b611e93600a670de0b6b3a764000061298b565b81602001351115611ef15760405162461bcd60e51b815260206004820152602260248201527f50726f746f636f6c436f6e6669673a20696e737572616e636520746f6f2068696044820152610ced60f31b6064820152608401610552565b611f04600a670de0b6b3a764000061298b565b81604001351115611f575760405162461bcd60e51b815260206004820152601f60248201527f50726f746f636f6c436f6e6669673a2072657761726420746f6f2068696768006044820152606401610552565b806080013581606001351115611faf5760405162461bcd60e51b815260206004820152601960248201527f50726f746f636f6c436f6e6669673a206d696e203e206d6178000000000000006044820152606401610552565b610e108160c0013511156120105760405162461bcd60e51b815260206004820152602260248201527f50726f746f636f6c436f6e6669673a2068656172746265617420746f6f206c6f6044820152616e6760f01b6064820152608401610552565b6120236014670de0b6b3a764000061298b565b8160e0013511156120815760405162461bcd60e51b815260206004820152602260248201527f50726f746f636f6c436f6e6669673a20646576696174696f6e20746f6f2068696044820152610ced60f31b6064820152608401610552565b6000612095610120830161010084016122ff565b6001600160a01b0316036120f75760405162461bcd60e51b815260206004820152602360248201527f50726f746f636f6c436f6e6669673a207a65726f20696e737572616e636520666044820152621d5b9960ea1b6064820152608401610552565b600061210b610140830161012084016122ff565b6001600160a01b03160361177d5760405162461bcd60e51b815260206004820152602260248201527f50726f746f636f6c436f6e6669673a207a65726f2066656520636f6c6c65637460448201526137b960f11b6064820152608401610552565b60008080600019858709858702925082811083820303915050806000036121a65783828161219c5761219c612975565b0492505050610f37565b8084116121ed5760405162461bcd60e51b81526020600482015260156024820152744d6174683a206d756c446976206f766572666c6f7760581b6044820152606401610552565b60008486880960026001871981018816978890046003810283188082028403028082028403028082028403028082028403028082028403029081029092039091026000889003889004909101858311909403939093029303949094049190911702949350505050565b60c081016122998284805182526020810151602083015260408101516040830152606081015160608301526080810151608083015260a081015160a08301525050565b92915050565b6000602082840312156122b157600080fd5b5035919050565b600080604083850312156122cb57600080fd5b50508035926020909101359150565b6001600160a01b038116811461177d57600080fd5b80356122fa816122da565b919050565b60006020828403121561231157600080fd5b8135610f37816122da565b805182526020810151602083015260408101516040830152606081015160608301526080810151608083015260a081015160a083015260c081015160c083015260e081015160e0830152610100808201518184015250610120808201518184015250610140808201516123928285018215159052565b5050610160818101519083015261018090810151910152565b6101a08101612299828461231c565b6000808284036101c08112156123cf57600080fd5b833592506101a0601f19820112156123e657600080fd5b506020830190509250929050565b60008060006060848603121561240957600080fd5b505081359360208301359350604090920135919050565b600060c0828403121561243257600080fd5b50919050565b6000610160828403121561243257600080fd5b805182526020810151602083015260408101516040830152606081015160608301526080810151608083015260a081015160a083015260c081015160c083015260e081015160e0830152610100808201516124b0828501826001600160a01b03169052565b5050610120818101516001600160a01b03908116918401919091526101409182015116910152565b6101608101612299828461244b565b6020808252601d908201527f50726f746f636f6c436f6e6669673a206f6e6c7920677561726469616e000000604082015260600190565b6020808252818101527f50726f746f636f6c436f6e6669673a206d61726b6574206e6f7420666f756e64604082015260600190565b6020808252601d908201527f50726f746f636f6c436f6e6669673a206f6e6c792074696d656c6f636b000000604082015260600190565b801515811461177d57600080fd5b80356122fa8161258a565b6000602082840312156125b557600080fd5b8135610f378161258a565b61034081016125cf828561231c565b82356101a083015260208301356101c083015260408301356101e08301526060830135610200830152608083013561022083015260a083013561024083015260c083013561026083015260e08301356102808301526101008301356102a08301526101208301356102c08301526126496101408401612598565b15156102e08301526101608301356103008301526101809092013561032090910152919050565b634e487b7160e01b600052601160045260246000fd5b60006001820161269857612698612670565b5060010190565b61018081016126e38285805182526020810151602083015260408101516040830152606081015160608301526080810151608083015260a081015160a08301525050565b823560c0830152602083013560e083015260408301356101008301526060830135610120830152608083013561014083015260a08301356101608301529392505050565b60008135612299816122da565b80546001600160a01b0319166001600160a01b0392909216919091179055565b813581556020820135600182015560408201356002820155606082013560038201556080820135600482015560a0820135600582015560c0820135600682015560e082013560078201556127b76127ae6101008401612727565b60088301612734565b6127d06127c76101208401612727565b60098301612734565b6127e96127e06101408401612727565b600a8301612734565b5050565b6102c081016127fc828561244b565b8235610160830152602083013561018083015260408301356101a083015260608301356101c083015260808301356101e083015260a083013561020083015260c083013561022083015260e083013561024083015261285e61010084016122ef565b6001600160a01b031661026083015261287a61012084016122ef565b6001600160a01b031661028083015261289661014084016122ef565b6001600160a01b0381166102a0840152509392505050565b600081356122998161258a565b813581556020820135600182015560408201356002820155606082013560038201556080820135600482015560a0820135600582015560c0820135600682015560e082013560078201556101008201356008820155610120820135600982015561294461292b61014084016128ae565b600a830160ff1981541660ff8315151681178255505050565b610160820135600b820155610180820135600c8201555050565b808202811582820484141761229957612299612670565b634e487b7160e01b600052601260045260246000fd5b6000826129a857634e487b7160e01b600052601260045260246000fd5b50049056fea2646970667358221220bbc253db77f00dff410fec5636f44046701bc9b6ec14b614ae8fae2561de2dd464736f6c63430008130033","linkReferences":{}},"methodIdentifiers":{"cancelConfigUpdate(bytes32)":"b4038285","emergencyDisableMarket(uint256)":"0a141b24","emergencyEnableMarket(uint256)":"5cf95920","executeConfigUpdate(bytes32)":"a4502c7a","getConfigGuardian()":"a5115d5c","getConfigVersion()":"9dc6edc7","getMarketConfig(uint256)":"3bdd5d81","getMaxPositionSize(uint256)":"881a960e","getMinMargin(uint256,uint256)":"17bfdcec","getProtocolConfig()":"ed700b3e","getRiskConfig()":"06134fdf","getScheduledUpdate(bytes32)":"a8e97c89","initializeMarket(uint256,(uint256,uint256,uint256,uint256,uint256,uint256,uint256,uint256,uint256,uint256,bool,uint256,uint256))":"ef6984d3","isMarketActive(uint256)":"f849f69e","isUpdatePending(bytes32)":"9c9ef682","owner()":"8da5cb5b","paused()":"5c975abb","renounceOwnership()":"715018a6","scheduleConfigUpdate(bytes32,uint256)":"336c7d8e","setTimelockController(address)":"2a94ac3f","timelockController()":"f3388e75","transferOwnership(address)":"f2fde38b","updateConfigGuardian(address)":"85c5f845","updateMarketConfig(uint256,(uint256,uint256,uint256,uint256,uint256,uint256,uint256,uint256,uint256,uint256,bool,uint256,uint256))":"532bc147","updateProtocolConfig((uint256,uint256,uint256,uint256,uint256,uint256,uint256,uint256,address,address,address))":"bb5d3aed","updateRiskConfig((uint256,uint256,uint256,uint256,uint256,uint256))":"a6b06a66","validateMarketParameters(uint256,uint256,uint256)":"9634a22e"},"id":5}